8=FIX.4.4|9=73|35=A|34=1|49=FIXSIM|52=20180109-00:00:03.618|56=QFSAMPLE|98=0|108=30|141=Y|10=140|
8=FIX.4.4|9=61|35=0|34=2|49=FIXSIM|52=20180109-00:00:03.852|56=QFSAMPLE|112=2|10=055|
8=FIX.4.4|9=55|35=0|34=3|49=FIXSIM|52=20180109-00:00:33.273|56=QFSAMPLE|10=055|
8=FIX.4.4|9=55|35=0|34=4|49=FIXSIM|52=20180109-00:01:03.319|56=QFSAMPLE|10=055|
8=FIX.4.4|9=55|35=0|34=5|49=FIXSIM|52=20180109-00:01:33.349|56=QFSAMPLE|10=062|
8=FIX.4.4|9=55|35=0|34=6|49=FIXSIM|52=20180109-00:02:03.363|56=QFSAMPLE|10=057|
8=FIX.4.4|9=55|35=0|34=7|49=FIXSIM|52=20180109-00:02:33.393|56=QFSAMPLE|10=064|
8=FIX.4.4|9=55|35=0|34=8|49=FIXSIM|52=20180109-00:03:03.408|56=QFSAMPLE|10=060|
8=FIX.4.4|9=55|35=0|34=9|49=FIXSIM|52=20180109-00:03:33.438|56=QFSAMPLE|10=067|
8=FIX.4.4|9=56|35=0|34=10|49=FIXSIM|52=20180109-00:04:03.452|56=QFSAMPLE|10=102|
8=FIX.4.4|9=56|35=0|34=11|49=FIXSIM|52=20180109-00:04:33.482|56=QFSAMPLE|10=109|
8=FIX.4.4|9=56|35=0|34=12|49=FIXSIM|52=20180109-00:05:03.497|56=QFSAMPLE|10=114|
8=FIX.4.4|9=56|35=0|34=13|49=FIXSIM|52=20180109-00:05:33.527|56=QFSAMPLE|10=112|
8=FIX.4.4|9=56|35=0|34=14|49=FIXSIM|52=20180109-00:06:03.541|56=QFSAMPLE|10=107|
8=FIX.4.4|9=56|35=0|34=15|49=FIXSIM|52=20180109-00:06:33.555|56=QFSAMPLE|10=116|
8=FIX.4.4|9=56|35=0|34=16|49=FIXSIM|52=20180109-00:07:03.570|56=QFSAMPLE|10=112|
8=FIX.4.4|9=56|35=0|34=17|49=FIXSIM|52=20180109-00:07:33.584|56=QFSAMPLE|10=121|
8=FIX.4.4|9=56|35=0|34=18|49=FIXSIM|52=20180109-00:08:03.599|56=QFSAMPLE|10=126|
8=FIX.4.4|9=56|35=0|34=19|49=FIXSIM|52=20180109-00:08:33.613|56=QFSAMPLE|10=117|
8=FIX.4.4|9=56|35=0|34=20|49=FIXSIM|52=20180109-00:09:03.627|56=QFSAMPLE|10=112|
8=FIX.4.4|9=56|35=0|34=21|49=FIXSIM|52=20180109-00:09:33.642|56=QFSAMPLE|10=113|
8=FIX.4.4|9=56|35=0|34=22|49=FIXSIM|52=20180109-00:10:03.656|56=QFSAMPLE|10=108|
8=FIX.4.4|9=56|35=0|34=23|49=FIXSIM|52=20180109-00:10:33.671|56=QFSAMPLE|10=109|
8=FIX.4.4|9=56|35=0|34=24|49=FIXSIM|52=20180109-00:11:03.685|56=QFSAMPLE|10=113|
8=FIX.4.4|9=56|35=0|34=25|49=FIXSIM|52=20180109-00:11:33.699|56=QFSAMPLE|10=122|
8=FIX.4.4|9=56|35=0|34=26|49=FIXSIM|52=20180109-00:12:03.714|56=QFSAMPLE|10=109|
8=FIX.4.4|9=56|35=0|34=27|49=FIXSIM|52=20180109-00:12:33.728|56=QFSAMPLE|10=118|
8=FIX.4.4|9=56|35=0|34=28|49=FIXSIM|52=20180109-00:13:03.743|56=QFSAMPLE|10=114|
8=FIX.4.4|9=56|35=0|34=29|49=FIXSIM|52=20180109-00:13:33.757|56=QFSAMPLE|10=123|
8=FIX.4.4|9=56|35=0|34=30|49=FIXSIM|52=20180109-00:14:03.771|56=QFSAMPLE|10=109|
8=FIX.4.4|9=56|35=0|34=31|49=FIXSIM|52=20180109-00:14:33.786|56=QFSAMPLE|10=119|
8=FIX.4.4|9=56|35=0|34=32|49=FIXSIM|52=20180109-00:15:03.800|56=QFSAMPLE|10=105|
8=FIX.4.4|9=56|35=0|34=33|49=FIXSIM|52=20180109-00:15:33.815|56=QFSAMPLE|10=115|
8=FIX.4.4|9=56|35=0|34=34|49=FIXSIM|52=20180109-00:16:03.829|56=QFSAMPLE|10=119|
8=FIX.4.4|9=56|35=0|34=35|49=FIXSIM|52=20180109-00:16:33.843|56=QFSAMPLE|10=119|
8=FIX.4.4|9=56|35=0|34=36|49=FIXSIM|52=20180109-00:17:03.858|56=QFSAMPLE|10=124|
8=FIX.4.4|9=56|35=0|34=37|49=FIXSIM|52=20180109-00:17:33.888|56=QFSAMPLE|10=131|
8=FIX.4.4|9=56|35=0|34=38|49=FIXSIM|52=20180109-00:18:03.902|56=QFSAMPLE|10=117|
8=FIX.4.4|9=56|35=0|34=39|49=FIXSIM|52=20180109-00:18:33.917|56=QFSAMPLE|10=127|
8=FIX.4.4|9=56|35=0|34=40|49=FIXSIM|52=20180109-00:19:03.931|56=QFSAMPLE|10=113|
8=FIX.4.4|9=56|35=0|34=41|49=FIXSIM|52=20180109-00:19:33.945|56=QFSAMPLE|10=122|
8=FIX.4.4|9=56|35=0|34=42|49=FIXSIM|52=20180109-00:20:03.960|56=QFSAMPLE|10=109|
8=FIX.4.4|9=56|35=0|34=43|49=FIXSIM|52=20180109-00:20:33.974|56=QFSAMPLE|10=118|
8=FIX.4.4|9=56|35=0|34=44|49=FIXSIM|52=20180109-00:21:03.989|56=QFSAMPLE|10=123|
8=FIX.4.4|9=56|35=0|34=45|49=FIXSIM|52=20180109-00:21:34.003|56=QFSAMPLE|10=105|
8=FIX.4.4|9=56|35=0|34=46|49=FIXSIM|52=20180109-00:22:04.033|56=QFSAMPLE|10=107|
8=FIX.4.4|9=56|35=0|34=47|49=FIXSIM|52=20180109-00:22:34.063|56=QFSAMPLE|10=114|
8=FIX.4.4|9=56|35=0|34=48|49=FIXSIM|52=20180109-00:23:04.077|56=QFSAMPLE|10=118|
8=FIX.4.4|9=56|35=0|34=49|49=FIXSIM|52=20180109-00:23:34.092|56=QFSAMPLE|10=119|
8=FIX.4.4|9=56|35=0|34=50|49=FIXSIM|52=20180109-00:24:04.122|56=QFSAMPLE|10=103|
8=FIX.4.4|9=56|35=0|34=51|49=FIXSIM|52=20180109-00:24:34.152|56=QFSAMPLE|10=110|
8=FIX.4.4|9=56|35=0|34=52|49=FIXSIM|52=20180109-00:25:04.166|56=QFSAMPLE|10=114|
8=FIX.4.4|9=56|35=0|34=53|49=FIXSIM|52=20180109-00:25:34.181|56=QFSAMPLE|10=115|
8=FIX.4.4|9=56|35=0|34=54|49=FIXSIM|52=20180109-00:26:04.195|56=QFSAMPLE|10=119|
8=FIX.4.4|9=56|35=0|34=55|49=FIXSIM|52=20180109-00:26:34.225|56=QFSAMPLE|10=117|
8=FIX.4.4|9=56|35=0|34=56|49=FIXSIM|52=20180109-00:27:04.239|56=QFSAMPLE|10=121|
8=FIX.4.4|9=56|35=0|34=57|49=FIXSIM|52=20180109-00:27:34.269|56=QFSAMPLE|10=128|
8=FIX.4.4|9=56|35=0|34=58|49=FIXSIM|52=20180109-00:28:04.284|56=QFSAMPLE|10=124|
8=FIX.4.4|9=56|35=0|34=59|49=FIXSIM|52=20180109-00:28:34.298|56=QFSAMPLE|10=133|
8=FIX.4.4|9=56|35=0|34=60|49=FIXSIM|52=20180109-00:29:04.313|56=QFSAMPLE|10=111|
8=FIX.4.4|9=56|35=0|34=61|49=FIXSIM|52=20180109-00:29:34.327|56=QFSAMPLE|10=120|
8=FIX.4.4|9=56|35=0|34=62|49=FIXSIM|52=20180109-00:30:04.341|56=QFSAMPLE|10=106|
8=FIX.4.4|9=56|35=0|34=63|49=FIXSIM|52=20180109-00:30:34.356|56=QFSAMPLE|10=116|
8=FIX.4.4|9=56|35=0|34=64|49=FIXSIM|52=20180109-00:31:04.370|56=QFSAMPLE|10=111|
8=FIX.4.4|9=56|35=0|34=65|49=FIXSIM|52=20180109-00:31:34.385|56=QFSAMPLE|10=121|
8=FIX.4.4|9=56|35=0|34=66|49=FIXSIM|52=20180109-00:32:04.399|56=QFSAMPLE|10=125|
8=FIX.4.4|9=56|35=0|34=67|49=FIXSIM|52=20180109-00:32:34.429|56=QFSAMPLE|10=123|
8=FIX.4.4|9=56|35=0|34=68|49=FIXSIM|52=20180109-00:33:04.443|56=QFSAMPLE|10=118|
8=FIX.4.4|9=56|35=0|34=69|49=FIXSIM|52=20180109-00:33:34.458|56=QFSAMPLE|10=128|
8=FIX.4.4|9=56|35=0|34=70|49=FIXSIM|52=20180109-00:34:04.472|56=QFSAMPLE|10=114|
8=FIX.4.4|9=56|35=0|34=71|49=FIXSIM|52=20180109-00:34:34.487|56=QFSAMPLE|10=124|
8=FIX.4.4|9=56|35=0|34=72|49=FIXSIM|52=20180109-00:35:04.517|56=QFSAMPLE|10=117|
8=FIX.4.4|9=56|35=0|34=73|49=FIXSIM|52=20180109-00:35:34.531|56=QFSAMPLE|10=117|
8=FIX.4.4|9=56|35=0|34=74|49=FIXSIM|52=20180109-00:36:04.561|56=QFSAMPLE|10=119|
8=FIX.4.4|9=56|35=0|34=75|49=FIXSIM|52=20180109-00:36:34.591|56=QFSAMPLE|10=126|
8=FIX.4.4|9=56|35=0|34=76|49=FIXSIM|52=20180109-00:37:04.621|56=QFSAMPLE|10=119|
8=FIX.4.4|9=56|35=0|34=77|49=FIXSIM|52=20180109-00:37:34.635|56=QFSAMPLE|10=128|
8=FIX.4.4|9=56|35=0|34=78|49=FIXSIM|52=20180109-00:38:04.650|56=QFSAMPLE|10=124|
8=FIX.4.4|9=56|35=0|34=79|49=FIXSIM|52=20180109-00:38:34.680|56=QFSAMPLE|10=131|
8=FIX.4.4|9=56|35=0|34=80|49=FIXSIM|52=20180109-00:39:04.710|56=QFSAMPLE|10=115|
8=FIX.4.4|9=56|35=0|34=81|49=FIXSIM|52=20180109-00:39:34.724|56=QFSAMPLE|10=124|
8=FIX.4.4|9=56|35=0|34=82|49=FIXSIM|52=20180109-00:40:04.739|56=QFSAMPLE|10=120|
8=FIX.4.4|9=56|35=0|34=83|49=FIXSIM|52=20180109-00:40:34.753|56=QFSAMPLE|10=120|
8=FIX.4.4|9=56|35=0|34=84|49=FIXSIM|52=20180109-00:41:04.767|56=QFSAMPLE|10=124|
8=FIX.4.4|9=56|35=0|34=85|49=FIXSIM|52=20180109-00:41:34.782|56=QFSAMPLE|10=125|
8=FIX.4.4|9=56|35=0|34=86|49=FIXSIM|52=20180109-00:42:04.796|56=QFSAMPLE|10=129|
8=FIX.4.4|9=56|35=0|34=87|49=FIXSIM|52=20180109-00:42:34.811|56=QFSAMPLE|10=121|
8=FIX.4.4|9=56|35=0|34=88|49=FIXSIM|52=20180109-00:43:04.825|56=QFSAMPLE|10=125|
8=FIX.4.4|9=56|35=0|34=89|49=FIXSIM|52=20180109-00:43:34.839|56=QFSAMPLE|10=134|
8=FIX.4.4|9=56|35=0|34=90|49=FIXSIM|52=20180109-00:44:04.854|56=QFSAMPLE|10=121|
8=FIX.4.4|9=56|35=0|34=91|49=FIXSIM|52=20180109-00:44:34.868|56=QFSAMPLE|10=130|
8=FIX.4.4|9=56|35=0|34=92|49=FIXSIM|52=20180109-00:45:04.898|56=QFSAMPLE|10=132|
8=FIX.4.4|9=56|35=0|34=93|49=FIXSIM|52=20180109-00:45:34.928|56=QFSAMPLE|10=130|
8=FIX.4.4|9=56|35=0|34=94|49=FIXSIM|52=20180109-00:46:04.958|56=QFSAMPLE|10=132|
8=FIX.4.4|9=56|35=0|34=95|49=FIXSIM|52=20180109-00:46:34.973|56=QFSAMPLE|10=133|
8=FIX.4.4|9=56|35=0|34=96|49=FIXSIM|52=20180109-00:47:04.987|56=QFSAMPLE|10=137|
8=FIX.4.4|9=56|35=0|34=97|49=FIXSIM|52=20180109-00:47:35.001|56=QFSAMPLE|10=119|
8=FIX.4.4|9=56|35=0|34=98|49=FIXSIM|52=20180109-00:48:05.016|56=QFSAMPLE|10=124|
8=FIX.4.4|9=56|35=0|34=99|49=FIXSIM|52=20180109-00:48:35.030|56=QFSAMPLE|10=124|
8=FIX.4.4|9=57|35=0|34=100|49=FIXSIM|52=20180109-00:49:05.045|56=QFSAMPLE|10=160|
8=FIX.4.4|9=57|35=0|34=101|49=FIXSIM|52=20180109-00:49:35.059|56=QFSAMPLE|10=169|
8=FIX.4.4|9=57|35=0|34=102|49=FIXSIM|52=20180109-00:50:05.073|56=QFSAMPLE|10=155|
8=FIX.4.4|9=57|35=0|34=103|49=FIXSIM|52=20180109-00:50:35.088|56=QFSAMPLE|10=165|
8=FIX.4.4|9=57|35=0|34=104|49=FIXSIM|52=20180109-00:51:05.149|56=QFSAMPLE|10=162|
8=FIX.4.4|9=57|35=0|34=105|49=FIXSIM|52=20180109-00:51:35.195|56=QFSAMPLE|10=167|
8=FIX.4.4|9=57|35=0|34=106|49=FIXSIM|52=20180109-00:52:05.225|56=QFSAMPLE|10=160|
8=FIX.4.4|9=57|35=0|34=107|49=FIXSIM|52=20180109-00:52:35.239|56=QFSAMPLE|10=169|
8=FIX.4.4|9=57|35=0|34=108|49=FIXSIM|52=20180109-00:53:05.269|56=QFSAMPLE|10=171|
8=FIX.4.4|9=57|35=0|34=109|49=FIXSIM|52=20180109-00:53:35.299|56=QFSAMPLE|10=178|
8=FIX.4.4|9=57|35=0|34=110|49=FIXSIM|52=20180109-00:54:05.313|56=QFSAMPLE|10=155|
8=FIX.4.4|9=57|35=0|34=111|49=FIXSIM|52=20180109-00:54:35.328|56=QFSAMPLE|10=165|
8=FIX.4.4|9=57|35=0|34=112|49=FIXSIM|52=20180109-00:55:05.358|56=QFSAMPLE|10=167|
8=FIX.4.4|9=57|35=0|34=113|49=FIXSIM|52=20180109-00:55:35.372|56=QFSAMPLE|10=167|
8=FIX.4.4|9=57|35=0|34=114|49=FIXSIM|52=20180109-00:56:05.387|56=QFSAMPLE|10=172|
8=FIX.4.4|9=57|35=0|34=115|49=FIXSIM|52=20180109-00:56:35.401|56=QFSAMPLE|10=163|
8=FIX.4.4|9=57|35=0|34=116|49=FIXSIM|52=20180109-00:57:05.415|56=QFSAMPLE|10=167|
8=FIX.4.4|9=57|35=0|34=117|49=FIXSIM|52=20180109-00:57:35.430|56=QFSAMPLE|10=168|
8=FIX.4.4|9=57|35=0|34=118|49=FIXSIM|52=20180109-00:58:05.444|56=QFSAMPLE|10=172|
8=FIX.4.4|9=57|35=0|34=119|49=FIXSIM|52=20180109-00:58:35.459|56=QFSAMPLE|10=182|
8=FIX.4.4|9=57|35=0|34=120|49=FIXSIM|52=20180109-00:59:05.473|56=QFSAMPLE|10=168|
8=FIX.4.4|9=57|35=0|34=121|49=FIXSIM|52=20180109-00:59:35.487|56=QFSAMPLE|10=177|
8=FIX.4.4|9=57|35=0|34=122|49=FIXSIM|52=20180109-01:00:05.502|56=QFSAMPLE|10=150|
8=FIX.4.4|9=57|35=0|34=123|49=FIXSIM|52=20180109-01:00:35.516|56=QFSAMPLE|10=159|
8=FIX.4.4|9=57|35=0|34=124|49=FIXSIM|52=20180109-01:01:05.531|56=QFSAMPLE|10=155|
8=FIX.4.4|9=57|35=0|34=125|49=FIXSIM|52=20180109-01:01:35.576|56=QFSAMPLE|10=168|
8=FIX.4.4|9=57|35=0|34=126|49=FIXSIM|52=20180109-01:02:05.606|56=QFSAMPLE|10=161|
8=FIX.4.4|9=57|35=0|34=127|49=FIXSIM|52=20180109-01:02:35.621|56=QFSAMPLE|10=162|
8=FIX.4.4|9=57|35=0|34=128|49=FIXSIM|52=20180109-01:03:05.635|56=QFSAMPLE|10=166|
8=FIX.4.4|9=57|35=0|34=129|49=FIXSIM|52=20180109-01:03:35.649|56=QFSAMPLE|10=175|
8=FIX.4.4|9=57|35=0|34=130|49=FIXSIM|52=20180109-01:04:05.664|56=QFSAMPLE|10=162|
8=FIX.4.4|9=57|35=0|34=131|49=FIXSIM|52=20180109-01:04:35.678|56=QFSAMPLE|10=171|
8=FIX.4.4|9=57|35=0|34=132|49=FIXSIM|52=20180109-01:05:05.708|56=QFSAMPLE|10=164|
8=FIX.4.4|9=57|35=0|34=133|49=FIXSIM|52=20180109-01:05:35.723|56=QFSAMPLE|10=165|
8=FIX.4.4|9=57|35=0|34=134|49=FIXSIM|52=20180109-01:06:05.737|56=QFSAMPLE|10=169|
8=FIX.4.4|9=57|35=0|34=135|49=FIXSIM|52=20180109-01:06:35.751|56=QFSAMPLE|10=169|
8=FIX.4.4|9=57|35=0|34=136|49=FIXSIM|52=20180109-01:07:05.766|56=QFSAMPLE|10=174|
8=FIX.4.4|9=57|35=0|34=137|49=FIXSIM|52=20180109-01:07:35.780|56=QFSAMPLE|10=174|
8=FIX.4.4|9=57|35=0|34=138|49=FIXSIM|52=20180109-01:08:05.810|56=QFSAMPLE|10=167|
8=FIX.4.4|9=57|35=0|34=139|49=FIXSIM|52=20180109-01:08:35.825|56=QFSAMPLE|10=177|
8=FIX.4.4|9=57|35=0|34=140|49=FIXSIM|52=20180109-01:09:05.839|56=QFSAMPLE|10=172|
8=FIX.4.4|9=57|35=0|34=141|49=FIXSIM|52=20180109-01:09:35.869|56=QFSAMPLE|10=179|
8=FIX.4.4|9=57|35=0|34=142|49=FIXSIM|52=20180109-01:10:05.883|56=QFSAMPLE|10=165|
8=FIX.4.4|9=57|35=0|34=143|49=FIXSIM|52=20180109-01:10:35.898|56=QFSAMPLE|10=175|
8=FIX.4.4|9=57|35=0|34=144|49=FIXSIM|52=20180109-01:11:05.912|56=QFSAMPLE|10=161|
8=FIX.4.4|9=57|35=0|34=145|49=FIXSIM|52=20180109-01:11:35.927|56=QFSAMPLE|10=171|
8=FIX.4.4|9=57|35=0|34=146|49=FIXSIM|52=20180109-01:12:05.941|56=QFSAMPLE|10=166|
8=FIX.4.4|9=57|35=0|34=147|49=FIXSIM|52=20180109-01:12:35.955|56=QFSAMPLE|10=175|
8=FIX.4.4|9=57|35=0|34=148|49=FIXSIM|52=20180109-01:13:05.970|56=QFSAMPLE|10=171|
8=FIX.4.4|9=57|35=0|34=149|49=FIXSIM|52=20180109-01:13:35.984|56=QFSAMPLE|10=180|
8=FIX.4.4|9=57|35=0|34=150|49=FIXSIM|52=20180109-01:14:05.000|56=QFSAMPLE|10=149|
8=FIX.4.4|9=57|35=0|34=151|49=FIXSIM|52=20180109-01:14:36.013|56=QFSAMPLE|10=158|
8=FIX.4.4|9=57|35=0|34=152|49=FIXSIM|52=20180109-01:15:06.027|56=QFSAMPLE|10=162|
8=FIX.4.4|9=57|35=0|34=153|49=FIXSIM|52=20180109-01:15:36.042|56=QFSAMPLE|10=163|
8=FIX.4.4|9=57|35=0|34=154|49=FIXSIM|52=20180109-01:16:06.056|56=QFSAMPLE|10=167|
8=FIX.4.4|9=57|35=0|34=155|49=FIXSIM|52=20180109-01:16:36.071|56=QFSAMPLE|10=168|
8=FIX.4.4|9=57|35=0|34=156|49=FIXSIM|52=20180109-01:17:06.101|56=QFSAMPLE|10=161|
8=FIX.4.4|9=57|35=0|34=157|49=FIXSIM|52=20180109-01:17:36.131|56=QFSAMPLE|10=168|
8=FIX.4.4|9=57|35=0|34=158|49=FIXSIM|52=20180109-01:18:06.145|56=QFSAMPLE|10=172|
8=FIX.4.4|9=57|35=0|34=159|49=FIXSIM|52=20180109-01:18:36.159|56=QFSAMPLE|10=181|
8=FIX.4.4|9=57|35=0|34=160|49=FIXSIM|52=20180109-01:19:06.174|56=QFSAMPLE|10=168|
8=FIX.4.4|9=57|35=0|34=161|49=FIXSIM|52=20180109-01:19:36.188|56=QFSAMPLE|10=177|
8=FIX.4.4|9=57|35=0|34=162|49=FIXSIM|52=20180109-01:20:06.203|56=QFSAMPLE|10=155|
8=FIX.4.4|9=57|35=0|34=163|49=FIXSIM|52=20180109-01:20:36.217|56=QFSAMPLE|10=164|
8=FIX.4.4|9=57|35=0|34=164|49=FIXSIM|52=20180109-01:21:06.247|56=QFSAMPLE|10=166|
8=FIX.4.4|9=57|35=0|34=165|49=FIXSIM|52=20180109-01:21:36.277|56=QFSAMPLE|10=173|
8=FIX.4.4|9=57|35=0|34=166|49=FIXSIM|52=20180109-01:22:06.291|56=QFSAMPLE|10=168|
8=FIX.4.4|9=57|35=0|34=167|49=FIXSIM|52=20180109-01:22:36.306|56=QFSAMPLE|10=169|
8=FIX.4.4|9=57|35=0|34=168|49=FIXSIM|52=20180109-01:23:06.320|56=QFSAMPLE|10=164|
8=FIX.4.4|9=57|35=0|34=169|49=FIXSIM|52=20180109-01:23:36.335|56=QFSAMPLE|10=174|
8=FIX.4.4|9=57|35=0|34=170|49=FIXSIM|52=20180109-01:24:06.349|56=QFSAMPLE|10=169|
8=FIX.4.4|9=57|35=0|34=171|49=FIXSIM|52=20180109-01:24:36.363|56=QFSAMPLE|10=169|
8=FIX.4.4|9=57|35=0|34=172|49=FIXSIM|52=20180109-01:25:06.378|56=QFSAMPLE|10=174|
8=FIX.4.4|9=57|35=0|34=173|49=FIXSIM|52=20180109-01:25:36.392|56=QFSAMPLE|10=174|
8=FIX.4.4|9=57|35=0|34=174|49=FIXSIM|52=20180109-01:26:06.407|56=QFSAMPLE|10=170|
8=FIX.4.4|9=57|35=0|34=175|49=FIXSIM|52=20180109-01:26:36.421|56=QFSAMPLE|10=170|
8=FIX.4.4|9=57|35=0|34=176|49=FIXSIM|52=20180109-01:27:06.435|56=QFSAMPLE|10=174|
8=FIX.4.4|9=57|35=0|34=177|49=FIXSIM|52=20180109-01:27:36.450|56=QFSAMPLE|10=175|
8=FIX.4.4|9=57|35=0|34=178|49=FIXSIM|52=20180109-01:28:06.464|56=QFSAMPLE|10=179|
8=FIX.4.4|9=57|35=0|34=179|49=FIXSIM|52=20180109-01:28:36.479|56=QFSAMPLE|10=189|
8=FIX.4.4|9=57|35=0|34=180|49=FIXSIM|52=20180109-01:29:06.493|56=QFSAMPLE|10=175|
8=FIX.4.4|9=57|35=0|34=181|49=FIXSIM|52=20180109-01:29:36.507|56=QFSAMPLE|10=175|
8=FIX.4.4|9=57|35=0|34=182|49=FIXSIM|52=20180109-01:30:06.522|56=QFSAMPLE|10=162|
8=FIX.4.4|9=57|35=0|34=183|49=FIXSIM|52=20180109-01:30:36.536|56=QFSAMPLE|10=171|
8=FIX.4.4|9=57|35=0|34=184|49=FIXSIM|52=20180109-01:31:06.566|56=QFSAMPLE|10=173|
8=FIX.4.4|9=57|35=0|34=185|49=FIXSIM|52=20180109-01:31:36.581|56=QFSAMPLE|10=174|
8=FIX.4.4|9=57|35=0|34=186|49=FIXSIM|52=20180109-01:32:06.595|56=QFSAMPLE|10=178|
8=FIX.4.4|9=57|35=0|34=187|49=FIXSIM|52=20180109-01:32:36.609|56=QFSAMPLE|10=178|
8=FIX.4.4|9=57|35=0|34=188|49=FIXSIM|52=20180109-01:33:06.624|56=QFSAMPLE|10=174|
8=FIX.4.4|9=57|35=0|34=189|49=FIXSIM|52=20180109-01:33:36.638|56=QFSAMPLE|10=183|
8=FIX.4.4|9=57|35=0|34=190|49=FIXSIM|52=20180109-01:34:06.668|56=QFSAMPLE|10=176|
8=FIX.4.4|9=57|35=0|34=191|49=FIXSIM|52=20180109-01:34:36.683|56=QFSAMPLE|10=177|
8=FIX.4.4|9=57|35=0|34=192|49=FIXSIM|52=20180109-01:35:06.713|56=QFSAMPLE|10=170|
8=FIX.4.4|9=57|35=0|34=193|49=FIXSIM|52=20180109-01:35:36.727|56=QFSAMPLE|10=179|
8=FIX.4.4|9=57|35=0|34=194|49=FIXSIM|52=20180109-01:36:06.741|56=QFSAMPLE|10=174|
8=FIX.4.4|9=57|35=0|34=195|49=FIXSIM|52=20180109-01:36:36.756|56=QFSAMPLE|10=184|
8=FIX.4.4|9=57|35=0|34=196|49=FIXSIM|52=20180109-01:37:06.786|56=QFSAMPLE|10=186|
8=FIX.4.4|9=57|35=0|34=197|49=FIXSIM|52=20180109-01:37:36.800|56=QFSAMPLE|10=177|
8=FIX.4.4|9=57|35=0|34=198|49=FIXSIM|52=20180109-01:38:06.815|56=QFSAMPLE|10=182|
8=FIX.4.4|9=57|35=0|34=199|49=FIXSIM|52=20180109-01:38:36.829|56=QFSAMPLE|10=191|
8=FIX.4.4|9=57|35=0|34=200|49=FIXSIM|52=20180109-01:39:06.843|56=QFSAMPLE|10=168|
8=FIX.4.4|9=57|35=0|34=201|49=FIXSIM|52=20180109-01:39:36.858|56=QFSAMPLE|10=178|
8=FIX.4.4|9=57|35=0|34=202|49=FIXSIM|52=20180109-01:40:06.872|56=QFSAMPLE|10=164|
8=FIX.4.4|9=57|35=0|34=203|49=FIXSIM|52=20180109-01:40:36.902|56=QFSAMPLE|10=162|
8=FIX.4.4|9=57|35=0|34=204|49=FIXSIM|52=20180109-01:41:06.917|56=QFSAMPLE|10=167|
8=FIX.4.4|9=57|35=0|34=205|49=FIXSIM|52=20180109-01:41:36.947|56=QFSAMPLE|10=174|
8=FIX.4.4|9=57|35=0|34=206|49=FIXSIM|52=20180109-01:42:06.961|56=QFSAMPLE|10=169|
8=FIX.4.4|9=57|35=0|34=207|49=FIXSIM|52=20180109-01:42:36.975|56=QFSAMPLE|10=178|
8=FIX.4.4|9=57|35=0|34=208|49=FIXSIM|52=20180109-01:43:07.005|56=QFSAMPLE|10=162|
8=FIX.4.4|9=57|35=0|34=209|49=FIXSIM|52=20180109-01:43:37.020|56=QFSAMPLE|10=163|
8=FIX.4.4|9=57|35=0|34=210|49=FIXSIM|52=20180109-01:44:07.034|56=QFSAMPLE|10=158|
8=FIX.4.4|9=57|35=0|34=211|49=FIXSIM|52=20180109-01:44:37.049|56=QFSAMPLE|10=168|
8=FIX.4.4|9=57|35=0|34=212|49=FIXSIM|52=20180109-01:45:07.063|56=QFSAMPLE|10=163|
8=FIX.4.4|9=57|35=0|34=213|49=FIXSIM|52=20180109-01:45:37.077|56=QFSAMPLE|10=172|
8=FIX.4.4|9=57|35=0|34=214|49=FIXSIM|52=20180109-01:46:07.092|56=QFSAMPLE|10=168|
8=FIX.4.4|9=57|35=0|34=215|49=FIXSIM|52=20180109-01:46:37.106|56=QFSAMPLE|10=168|
8=FIX.4.4|9=57|35=0|34=216|49=FIXSIM|52=20180109-01:47:07.121|56=QFSAMPLE|10=164|
8=FIX.4.4|9=57|35=0|34=217|49=FIXSIM|52=20180109-01:47:37.135|56=QFSAMPLE|10=173|
8=FIX.4.4|9=57|35=0|34=218|49=FIXSIM|52=20180109-01:48:07.149|56=QFSAMPLE|10=177|
8=FIX.4.4|9=57|35=0|34=219|49=FIXSIM|52=20180109-01:48:37.164|56=QFSAMPLE|10=178|
8=FIX.4.4|9=57|35=0|34=220|49=FIXSIM|52=20180109-01:49:07.178|56=QFSAMPLE|10=173|
8=FIX.4.4|9=57|35=0|34=221|49=FIXSIM|52=20180109-01:49:37.193|56=QFSAMPLE|10=174|
8=FIX.4.4|9=57|35=0|34=222|49=FIXSIM|52=20180109-01:50:07.207|56=QFSAMPLE|10=160|
8=FIX.4.4|9=57|35=0|34=223|49=FIXSIM|52=20180109-01:50:37.221|56=QFSAMPLE|10=160|
8=FIX.4.4|9=57|35=0|34=224|49=FIXSIM|52=20180109-01:51:07.236|56=QFSAMPLE|10=165|
8=FIX.4.4|9=57|35=0|34=225|49=FIXSIM|52=20180109-01:51:37.250|56=QFSAMPLE|10=165|
8=FIX.4.4|9=57|35=0|34=226|49=FIXSIM|52=20180109-01:52:07.265|56=QFSAMPLE|10=170|
8=FIX.4.4|9=57|35=0|34=227|49=FIXSIM|52=20180109-01:52:37.279|56=QFSAMPLE|10=179|
8=FIX.4.4|9=57|35=0|34=228|49=FIXSIM|52=20180109-01:53:07.293|56=QFSAMPLE|10=174|
8=FIX.4.4|9=57|35=0|34=229|49=FIXSIM|52=20180109-01:53:37.308|56=QFSAMPLE|10=175|
8=FIX.4.4|9=57|35=0|34=230|49=FIXSIM|52=20180109-01:54:07.322|56=QFSAMPLE|10=161|
8=FIX.4.4|9=57|35=0|34=231|49=FIXSIM|52=20180109-01:54:37.337|56=QFSAMPLE|10=171|
8=FIX.4.4|9=57|35=0|34=232|49=FIXSIM|52=20180109-01:55:07.367|56=QFSAMPLE|10=173|
8=FIX.4.4|9=57|35=0|34=233|49=FIXSIM|52=20180109-01:55:37.381|56=QFSAMPLE|10=173|
8=FIX.4.4|9=57|35=0|34=234|49=FIXSIM|52=20180109-01:56:07.395|56=QFSAMPLE|10=177|
8=FIX.4.4|9=57|35=0|34=235|49=FIXSIM|52=20180109-01:56:37.410|56=QFSAMPLE|10=169|
8=FIX.4.4|9=57|35=0|34=236|49=FIXSIM|52=20180109-01:57:07.424|56=QFSAMPLE|10=173|
8=FIX.4.4|9=57|35=0|34=237|49=FIXSIM|52=20180109-01:57:37.470|56=QFSAMPLE|10=178|
8=FIX.4.4|9=57|35=0|34=238|49=FIXSIM|52=20180109-01:58:07.484|56=QFSAMPLE|10=182|
8=FIX.4.4|9=57|35=0|34=239|49=FIXSIM|52=20180109-01:58:37.499|56=QFSAMPLE|10=192|
8=FIX.4.4|9=57|35=0|34=240|49=FIXSIM|52=20180109-01:59:07.513|56=QFSAMPLE|10=169|
8=FIX.4.4|9=57|35=0|34=241|49=FIXSIM|52=20180109-01:59:37.527|56=QFSAMPLE|10=178|
8=FIX.4.4|9=57|35=0|34=242|49=FIXSIM|52=20180109-02:00:07.542|56=QFSAMPLE|10=160|
8=FIX.4.4|9=57|35=0|34=243|49=FIXSIM|52=20180109-02:00:37.556|56=QFSAMPLE|10=169|
8=FIX.4.4|9=57|35=0|34=244|49=FIXSIM|52=20180109-02:01:07.571|56=QFSAMPLE|10=165|
8=FIX.4.4|9=57|35=0|34=245|49=FIXSIM|52=20180109-02:01:37.585|56=QFSAMPLE|10=174|
8=FIX.4.4|9=57|35=0|34=246|49=FIXSIM|52=20180109-02:02:07.599|56=QFSAMPLE|10=178|
8=FIX.4.4|9=57|35=0|34=247|49=FIXSIM|52=20180109-02:02:37.614|56=QFSAMPLE|10=170|
8=FIX.4.4|9=57|35=0|34=248|49=FIXSIM|52=20180109-02:03:07.628|56=QFSAMPLE|10=174|
8=FIX.4.4|9=57|35=0|34=249|49=FIXSIM|52=20180109-02:03:37.658|56=QFSAMPLE|10=181|
8=FIX.4.4|9=57|35=0|34=250|49=FIXSIM|52=20180109-02:04:07.673|56=QFSAMPLE|10=168|
8=FIX.4.4|9=57|35=0|34=251|49=FIXSIM|52=20180109-02:04:37.687|56=QFSAMPLE|10=177|
8=FIX.4.4|9=57|35=0|34=252|49=FIXSIM|52=20180109-02:05:07.701|56=QFSAMPLE|10=163|
8=FIX.4.4|9=57|35=0|34=253|49=FIXSIM|52=20180109-02:05:37.716|56=QFSAMPLE|10=173|
8=FIX.4.4|9=57|35=0|34=254|49=FIXSIM|52=20180109-02:06:07.746|56=QFSAMPLE|10=175|
8=FIX.4.4|9=57|35=0|34=255|49=FIXSIM|52=20180109-02:06:37.760|56=QFSAMPLE|10=175|
8=FIX.4.4|9=57|35=0|34=256|49=FIXSIM|52=20180109-02:07:07.775|56=QFSAMPLE|10=180|
8=FIX.4.4|9=57|35=0|34=257|49=FIXSIM|52=20180109-02:07:37.789|56=QFSAMPLE|10=189|
8=FIX.4.4|9=57|35=0|34=258|49=FIXSIM|52=20180109-02:08:07.803|56=QFSAMPLE|10=175|
8=FIX.4.4|9=57|35=0|34=259|49=FIXSIM|52=20180109-02:08:37.818|56=QFSAMPLE|10=185|
8=FIX.4.4|9=57|35=0|34=260|49=FIXSIM|52=20180109-02:09:07.832|56=QFSAMPLE|10=171|
8=FIX.4.4|9=57|35=0|34=261|49=FIXSIM|52=20180109-02:09:37.847|56=QFSAMPLE|10=181|
8=FIX.4.4|9=57|35=0|34=262|49=FIXSIM|52=20180109-02:10:07.861|56=QFSAMPLE|10=167|
8=FIX.4.4|9=57|35=0|34=263|49=FIXSIM|52=20180109-02:10:37.875|56=QFSAMPLE|10=176|
8=FIX.4.4|9=57|35=0|34=264|49=FIXSIM|52=20180109-02:11:07.890|56=QFSAMPLE|10=172|
8=FIX.4.4|9=57|35=0|34=265|49=FIXSIM|52=20180109-02:11:37.904|56=QFSAMPLE|10=172|
8=FIX.4.4|9=57|35=0|34=266|49=FIXSIM|52=20180109-02:12:07.919|56=QFSAMPLE|10=177|
8=FIX.4.4|9=57|35=0|34=267|49=FIXSIM|52=20180109-02:12:37.933|56=QFSAMPLE|10=177|
8=FIX.4.4|9=57|35=0|34=268|49=FIXSIM|52=20180109-02:13:07.963|56=QFSAMPLE|10=179|
8=FIX.4.4|9=57|35=0|34=269|49=FIXSIM|52=20180109-02:13:37.977|56=QFSAMPLE|10=188|
8=FIX.4.4|9=57|35=0|34=270|49=FIXSIM|52=20180109-02:14:07.992|56=QFSAMPLE|10=175|
8=FIX.4.4|9=57|35=0|34=271|49=FIXSIM|52=20180109-02:14:38.006|56=QFSAMPLE|10=166|
8=FIX.4.4|9=57|35=0|34=272|49=FIXSIM|52=20180109-02:15:08.021|56=QFSAMPLE|10=162|
8=FIX.4.4|9=57|35=0|34=273|49=FIXSIM|52=20180109-02:15:38.051|56=QFSAMPLE|10=169|
8=FIX.4.4|9=57|35=0|34=274|49=FIXSIM|52=20180109-02:16:08.065|56=QFSAMPLE|10=173|
8=FIX.4.4|9=57|35=0|34=275|49=FIXSIM|52=20180109-02:16:38.079|56=QFSAMPLE|10=182|
8=FIX.4.4|9=57|35=0|34=276|49=FIXSIM|52=20180109-02:17:08.094|56=QFSAMPLE|10=178|
8=FIX.4.4|9=57|35=0|34=277|49=FIXSIM|52=20180109-02:17:38.108|56=QFSAMPLE|10=178|
8=FIX.4.4|9=57|35=0|34=278|49=FIXSIM|52=20180109-02:18:08.123|56=QFSAMPLE|10=174|
8=FIX.4.4|9=57|35=0|34=279|49=FIXSIM|52=20180109-02:18:38.137|56=QFSAMPLE|10=183|
8=FIX.4.4|9=57|35=0|34=280|49=FIXSIM|52=20180109-02:19:08.167|56=QFSAMPLE|10=176|
8=FIX.4.4|9=57|35=0|34=281|49=FIXSIM|52=20180109-02:19:38.181|56=QFSAMPLE|10=176|
8=FIX.4.4|9=57|35=0|34=282|49=FIXSIM|52=20180109-02:20:08.196|56=QFSAMPLE|10=172|
8=FIX.4.4|9=57|35=0|34=283|49=FIXSIM|52=20180109-02:20:38.210|56=QFSAMPLE|10=163|
8=FIX.4.4|9=57|35=0|34=284|49=FIXSIM|52=20180109-02:21:08.225|56=QFSAMPLE|10=168|
8=FIX.4.4|9=57|35=0|34=285|49=FIXSIM|52=20180109-02:21:38.239|56=QFSAMPLE|10=177|
8=FIX.4.4|9=57|35=0|34=286|49=FIXSIM|52=20180109-02:22:08.253|56=QFSAMPLE|10=172|
8=FIX.4.4|9=57|35=0|34=287|49=FIXSIM|52=20180109-02:22:38.268|56=QFSAMPLE|10=182|
8=FIX.4.4|9=57|35=0|34=288|49=FIXSIM|52=20180109-02:23:08.282|56=QFSAMPLE|10=177|
8=FIX.4.4|9=57|35=0|34=289|49=FIXSIM|52=20180109-02:23:38.297|56=QFSAMPLE|10=187|
8=FIX.4.4|9=57|35=0|34=290|49=FIXSIM|52=20180109-02:24:08.311|56=QFSAMPLE|10=164|
8=FIX.4.4|9=57|35=0|34=291|49=FIXSIM|52=20180109-02:24:38.341|56=QFSAMPLE|10=171|
8=FIX.4.4|9=57|35=0|34=292|49=FIXSIM|52=20180109-02:25:08.355|56=QFSAMPLE|10=175|
8=FIX.4.4|9=57|35=0|34=293|49=FIXSIM|52=20180109-02:25:38.370|56=QFSAMPLE|10=176|
8=FIX.4.4|9=57|35=0|34=294|49=FIXSIM|52=20180109-02:26:08.384|56=QFSAMPLE|10=180|
8=FIX.4.4|9=57|35=0|34=295|49=FIXSIM|52=20180109-02:26:38.399|56=QFSAMPLE|10=190|
8=FIX.4.4|9=57|35=0|34=296|49=FIXSIM|52=20180109-02:27:08.413|56=QFSAMPLE|10=176|
8=FIX.4.4|9=57|35=0|34=297|49=FIXSIM|52=20180109-02:27:38.427|56=QFSAMPLE|10=185|
8=FIX.4.4|9=57|35=0|34=298|49=FIXSIM|52=20180109-02:28:08.442|56=QFSAMPLE|10=181|
8=FIX.4.4|9=57|35=0|34=299|49=FIXSIM|52=20180109-02:28:38.456|56=QFSAMPLE|10=190|
8=FIX.4.4|9=57|35=0|34=300|49=FIXSIM|52=20180109-02:29:08.471|56=QFSAMPLE|10=168|
8=FIX.4.4|9=57|35=0|34=301|49=FIXSIM|52=20180109-02:29:38.485|56=QFSAMPLE|10=177|
8=FIX.4.4|9=57|35=0|34=302|49=FIXSIM|52=20180109-02:30:08.499|56=QFSAMPLE|10=172|
8=FIX.4.4|9=57|35=0|34=303|49=FIXSIM|52=20180109-02:30:38.514|56=QFSAMPLE|10=164|
8=FIX.4.4|9=57|35=0|34=304|49=FIXSIM|52=20180109-02:31:08.528|56=QFSAMPLE|10=168|
8=FIX.4.4|9=57|35=0|34=305|49=FIXSIM|52=20180109-02:31:38.543|56=QFSAMPLE|10=169|
8=FIX.4.4|9=57|35=0|34=306|49=FIXSIM|52=20180109-02:32:08.573|56=QFSAMPLE|10=171|
8=FIX.4.4|9=57|35=0|34=307|49=FIXSIM|52=20180109-02:32:38.587|56=QFSAMPLE|10=180|
8=FIX.4.4|9=57|35=0|34=308|49=FIXSIM|52=20180109-02:33:08.601|56=QFSAMPLE|10=166|
8=FIX.4.4|9=57|35=0|34=309|49=FIXSIM|52=20180109-02:33:38.616|56=QFSAMPLE|10=176|
8=FIX.4.4|9=57|35=0|34=310|49=FIXSIM|52=20180109-02:34:08.630|56=QFSAMPLE|10=162|
8=FIX.4.4|9=57|35=0|34=311|49=FIXSIM|52=20180109-02:34:38.645|56=QFSAMPLE|10=172|
8=FIX.4.4|9=57|35=0|34=312|49=FIXSIM|52=20180109-02:35:08.675|56=QFSAMPLE|10=174|
8=FIX.4.4|9=57|35=0|34=313|49=FIXSIM|52=20180109-02:35:38.689|56=QFSAMPLE|10=183|
8=FIX.4.4|9=57|35=0|34=314|49=FIXSIM|52=20180109-02:36:08.703|56=QFSAMPLE|10=169|
8=FIX.4.4|9=57|35=0|34=315|49=FIXSIM|52=20180109-02:36:38.733|56=QFSAMPLE|10=176|
8=FIX.4.4|9=57|35=0|34=316|49=FIXSIM|52=20180109-02:37:08.748|56=QFSAMPLE|10=181|
8=FIX.4.4|9=57|35=0|34=317|49=FIXSIM|52=20180109-02:37:38.762|56=QFSAMPLE|10=181|
8=FIX.4.4|9=57|35=0|34=318|49=FIXSIM|52=20180109-02:38:08.777|56=QFSAMPLE|10=186|
8=FIX.4.4|9=57|35=0|34=319|49=FIXSIM|52=20180109-02:38:38.791|56=QFSAMPLE|10=186|
8=FIX.4.4|9=57|35=0|34=320|49=FIXSIM|52=20180109-02:39:08.805|56=QFSAMPLE|10=172|
8=FIX.4.4|9=57|35=0|34=321|49=FIXSIM|52=20180109-02:39:38.820|56=QFSAMPLE|10=173|
8=FIX.4.4|9=57|35=0|34=322|49=FIXSIM|52=20180109-02:40:08.834|56=QFSAMPLE|10=168|
8=FIX.4.4|9=57|35=0|34=323|49=FIXSIM|52=20180109-02:40:38.849|56=QFSAMPLE|10=178|
8=FIX.4.4|9=57|35=0|34=324|49=FIXSIM|52=20180109-02:41:08.863|56=QFSAMPLE|10=173|
8=FIX.4.4|9=57|35=0|34=325|49=FIXSIM|52=20180109-02:41:38.877|56=QFSAMPLE|10=182|
8=FIX.4.4|9=57|35=0|34=326|49=FIXSIM|52=20180109-02:42:08.907|56=QFSAMPLE|10=175|
8=FIX.4.4|9=57|35=0|34=327|49=FIXSIM|52=20180109-02:42:38.922|56=QFSAMPLE|10=176|
8=FIX.4.4|9=57|35=0|34=328|49=FIXSIM|52=20180109-02:43:08.936|56=QFSAMPLE|10=180|
8=FIX.4.4|9=57|35=0|34=329|49=FIXSIM|52=20180109-02:43:38.951|56=QFSAMPLE|10=181|
8=FIX.4.4|9=57|35=0|34=330|49=FIXSIM|52=20180109-02:44:08.965|56=QFSAMPLE|10=176|
8=FIX.4.4|9=57|35=0|34=331|49=FIXSIM|52=20180109-02:44:38.979|56=QFSAMPLE|10=185|
8=FIX.4.4|9=57|35=0|34=332|49=FIXSIM|52=20180109-02:45:08.151|56=QFSAMPLE|10=166|
8=FIX.4.4|9=57|35=0|34=333|49=FIXSIM|52=20180109-02:45:38.337|56=QFSAMPLE|10=176|
8=FIX.4.4|9=57|35=0|34=334|49=FIXSIM|52=20180109-02:46:08.352|56=QFSAMPLE|10=172|
8=FIX.4.4|9=57|35=0|34=335|49=FIXSIM|52=20180109-02:46:38.553|56=QFSAMPLE|10=179|
8=FIX.4.4|9=57|35=0|34=336|49=FIXSIM|52=20180109-02:47:08.552|56=QFSAMPLE|10=177|
8=FIX.4.4|9=57|35=0|34=337|49=FIXSIM|52=20180109-02:47:38.754|56=QFSAMPLE|10=185|
8=FIX.4.4|9=57|35=0|34=338|49=FIXSIM|52=20180109-02:48:08.753|56=QFSAMPLE|10=183|
8=FIX.4.4|9=57|35=0|34=339|49=FIXSIM|52=20180109-02:48:38.767|56=QFSAMPLE|10=192|
8=FIX.4.4|9=57|35=0|34=340|49=FIXSIM|52=20180109-02:49:08.937|56=QFSAMPLE|10=181|
8=FIX.4.4|9=57|35=0|34=341|49=FIXSIM|52=20180109-02:49:38.125|56=QFSAMPLE|10=174|
8=FIX.4.4|9=57|35=0|34=342|49=FIXSIM|52=20180109-02:50:08.327|56=QFSAMPLE|10=168|
8=FIX.4.4|9=57|35=0|34=343|49=FIXSIM|52=20180109-02:50:38.513|56=QFSAMPLE|10=169|
8=FIX.4.4|9=57|35=0|34=344|49=FIXSIM|52=20180109-02:51:08.527|56=QFSAMPLE|10=173|
8=FIX.4.4|9=57|35=0|34=345|49=FIXSIM|52=20180109-02:51:38.729|56=QFSAMPLE|10=181|
8=FIX.4.4|9=57|35=0|34=346|49=FIXSIM|52=20180109-02:52:08.727|56=QFSAMPLE|10=178|
8=FIX.4.4|9=57|35=0|34=347|49=FIXSIM|52=20180109-02:52:38.929|56=QFSAMPLE|10=186|
8=FIX.4.4|9=57|35=0|34=348|49=FIXSIM|52=20180109-02:53:08.928|56=QFSAMPLE|10=184|
8=FIX.4.4|9=57|35=0|34=349|49=FIXSIM|52=20180109-02:53:38.942|56=QFSAMPLE|10=184|
8=FIX.4.4|9=57|35=0|34=350|49=FIXSIM|52=20180109-02:54:08.130|56=QFSAMPLE|10=163|
8=FIX.4.4|9=57|35=0|34=351|49=FIXSIM|52=20180109-02:54:38.331|56=QFSAMPLE|10=170|
8=FIX.4.4|9=57|35=0|34=352|49=FIXSIM|52=20180109-02:55:08.330|56=QFSAMPLE|10=168|
8=FIX.4.4|9=57|35=0|34=353|49=FIXSIM|52=20180109-02:55:38.532|56=QFSAMPLE|10=176|
8=FIX.4.4|9=57|35=0|34=354|49=FIXSIM|52=20180109-02:56:08.531|56=QFSAMPLE|10=174|
8=FIX.4.4|9=57|35=0|34=355|49=FIXSIM|52=20180109-02:56:38.732|56=QFSAMPLE|10=181|
8=FIX.4.4|9=57|35=0|34=356|49=FIXSIM|52=20180109-02:57:08.731|56=QFSAMPLE|10=179|
8=FIX.4.4|9=57|35=0|34=357|49=FIXSIM|52=20180109-02:57:38.933|56=QFSAMPLE|10=187|
8=FIX.4.4|9=57|35=0|34=358|49=FIXSIM|52=20180109-02:58:08.947|56=QFSAMPLE|10=191|
8=FIX.4.4|9=57|35=0|34=359|49=FIXSIM|52=20180109-02:58:38.946|56=QFSAMPLE|10=194|
8=FIX.4.4|9=57|35=0|34=360|49=FIXSIM|52=20180109-02:59:08.118|56=QFSAMPLE|10=175|
8=FIX.4.4|9=57|35=0|34=361|49=FIXSIM|52=20180109-02:59:38.304|56=QFSAMPLE|10=176|
8=FIX.4.4|9=57|35=0|34=362|49=FIXSIM|52=20180109-03:00:08.396|56=QFSAMPLE|10=172|
8=FIX.4.4|9=57|35=0|34=363|49=FIXSIM|52=20180109-03:00:38.504|56=QFSAMPLE|10=167|
8=FIX.4.4|9=57|35=0|34=364|49=FIXSIM|52=20180109-03:01:08.519|56=QFSAMPLE|10=172|
8=FIX.4.4|9=57|35=0|34=365|49=FIXSIM|52=20180109-03:01:38.705|56=QFSAMPLE|10=173|
8=FIX.4.4|9=57|35=0|34=366|49=FIXSIM|52=20180109-03:02:08.719|56=QFSAMPLE|10=177|
8=FIX.4.4|9=57|35=0|34=367|49=FIXSIM|52=20180109-03:02:38.718|56=QFSAMPLE|10=180|
8=FIX.4.4|9=57|35=0|34=368|49=FIXSIM|52=20180109-03:03:08.919|56=QFSAMPLE|10=182|
8=FIX.4.4|9=57|35=0|34=369|49=FIXSIM|52=20180109-03:03:38.918|56=QFSAMPLE|10=185|
8=FIX.4.4|9=57|35=0|34=370|49=FIXSIM|52=20180109-03:04:08.933|56=QFSAMPLE|10=172|
8=FIX.4.4|9=57|35=0|34=371|49=FIXSIM|52=20180109-03:04:38.931|56=QFSAMPLE|10=174|
8=FIX.4.4|9=57|35=0|34=372|49=FIXSIM|52=20180109-03:05:08.072|56=QFSAMPLE|10=169|
8=FIX.4.4|9=57|35=0|34=373|49=FIXSIM|52=20180109-03:05:38.118|56=QFSAMPLE|10=174|
8=FIX.4.4|9=57|35=0|34=374|49=FIXSIM|52=20180109-03:06:08.148|56=QFSAMPLE|10=176|
8=FIX.4.4|9=57|35=0|34=375|49=FIXSIM|52=20180109-03:06:38.334|56=QFSAMPLE|10=177|
8=FIX.4.4|9=57|35=0|34=376|49=FIXSIM|52=20180109-03:07:08.333|56=QFSAMPLE|10=175|
8=FIX.4.4|9=57|35=0|34=377|49=FIXSIM|52=20180109-03:07:38.550|56=QFSAMPLE|10=180|
8=FIX.4.4|9=57|35=0|34=378|49=FIXSIM|52=20180109-03:08:08.533|56=QFSAMPLE|10=180|
8=FIX.4.4|9=57|35=0|34=379|49=FIXSIM|52=20180109-03:08:38.532|56=QFSAMPLE|10=183|
8=FIX.4.4|9=57|35=0|34=380|49=FIXSIM|52=20180109-03:09:08.733|56=QFSAMPLE|10=176|
8=FIX.4.4|9=57|35=0|34=381|49=FIXSIM|52=20180109-03:09:38.919|56=QFSAMPLE|10=186|
8=FIX.4.4|9=57|35=0|34=382|49=FIXSIM|52=20180109-03:10:08.013|56=QFSAMPLE|10=161|
8=FIX.4.4|9=57|35=0|34=383|49=FIXSIM|52=20180109-03:10:38.043|56=QFSAMPLE|10=168|
8=FIX.4.4|9=57|35=0|34=384|49=FIXSIM|52=20180109-03:11:08.105|56=QFSAMPLE|10=166|
8=FIX.4.4|9=57|35=0|34=385|49=FIXSIM|52=20180109-03:11:38.119|56=QFSAMPLE|10=175|
8=FIX.4.4|9=57|35=0|34=386|49=FIXSIM|52=20180109-03:12:08.305|56=QFSAMPLE|10=171|
8=FIX.4.4|9=57|35=0|34=387|49=FIXSIM|52=20180109-03:12:38.366|56=QFSAMPLE|10=182|
8=FIX.4.4|9=57|35=0|34=388|49=FIXSIM|52=20180109-03:13:08.521|56=QFSAMPLE|10=174|
8=FIX.4.4|9=57|35=0|34=389|49=FIXSIM|52=20180109-03:13:38.520|56=QFSAMPLE|10=177|
8=FIX.4.4|9=57|35=0|34=390|49=FIXSIM|52=20180109-03:14:08.721|56=QFSAMPLE|10=170|
8=FIX.4.4|9=57|35=0|34=391|49=FIXSIM|52=20180109-03:14:38.907|56=QFSAMPLE|10=180|
8=FIX.4.4|9=57|35=0|34=392|49=FIXSIM|52=20180109-03:15:08.984|56=QFSAMPLE|10=184|
8=FIX.4.4|9=57|35=0|34=393|49=FIXSIM|52=20180109-03:15:38.109|56=QFSAMPLE|10=177|
8=FIX.4.4|9=57|35=0|34=394|49=FIXSIM|52=20180109-03:16:08.108|56=QFSAMPLE|10=175|
8=FIX.4.4|9=57|35=0|34=395|49=FIXSIM|52=20180109-03:16:38.138|56=QFSAMPLE|10=182|
8=FIX.4.4|9=57|35=0|34=396|49=FIXSIM|52=20180109-03:17:08.121|56=QFSAMPLE|10=173|
8=FIX.4.4|9=57|35=0|34=397|49=FIXSIM|52=20180109-03:17:38.323|56=QFSAMPLE|10=181|
8=FIX.4.4|9=57|35=0|34=398|49=FIXSIM|52=20180109-03:18:08.322|56=QFSAMPLE|10=179|
8=FIX.4.4|9=57|35=0|34=399|49=FIXSIM|52=20180109-03:18:38.367|56=QFSAMPLE|10=192|
8=FIX.4.4|9=57|35=0|34=400|49=FIXSIM|52=20180109-03:19:08.522|56=QFSAMPLE|10=166|
8=FIX.4.4|9=57|35=0|34=401|49=FIXSIM|52=20180109-03:19:38.693|56=QFSAMPLE|10=179|
8=FIX.4.4|9=57|35=0|34=402|49=FIXSIM|52=20180109-03:20:08.769|56=QFSAMPLE|10=173|
8=FIX.4.4|9=57|35=0|34=403|49=FIXSIM|52=20180109-03:20:38.924|56=QFSAMPLE|10=170|
8=FIX.4.4|9=57|35=0|34=404|49=FIXSIM|52=20180109-03:21:08.096|56=QFSAMPLE|10=169|
8=FIX.4.4|9=57|35=0|34=405|49=FIXSIM|52=20180109-03:21:38.298|56=QFSAMPLE|10=177|
8=FIX.4.4|9=57|35=0|34=406|49=FIXSIM|52=20180109-03:22:08.297|56=QFSAMPLE|10=175|
8=FIX.4.4|9=57|35=0|34=407|49=FIXSIM|52=20180109-03:22:38.311|56=QFSAMPLE|10=166|
8=FIX.4.4|9=57|35=0|34=408|49=FIXSIM|52=20180109-03:23:08.497|56=QFSAMPLE|10=180|
8=FIX.4.4|9=57|35=0|34=409|49=FIXSIM|52=20180109-03:23:38.730|56=QFSAMPLE|10=174|
8=FIX.4.4|9=57|35=0|34=410|49=FIXSIM|52=20180109-03:24:08.697|56=QFSAMPLE|10=176|
8=FIX.4.4|9=57|35=0|34=411|49=FIXSIM|52=20180109-03:24:38.712|56=QFSAMPLE|10=168|
8=FIX.4.4|9=57|35=0|34=412|49=FIXSIM|52=20180109-03:25:08.835|56=QFSAMPLE|10=173|
8=FIX.4.4|9=57|35=0|34=413|49=FIXSIM|52=20180109-03:25:38.912|56=QFSAMPLE|10=173|
8=FIX.4.4|9=57|35=0|34=414|49=FIXSIM|52=20180109-03:26:08.942|56=QFSAMPLE|10=175|
8=FIX.4.4|9=57|35=0|34=415|49=FIXSIM|52=20180109-03:26:38.099|56=QFSAMPLE|10=182|
8=FIX.4.4|9=57|35=0|34=416|49=FIXSIM|52=20180109-03:27:08.113|56=QFSAMPLE|10=168|
8=FIX.4.4|9=57|35=0|34=417|49=FIXSIM|52=20180109-03:27:38.299|56=QFSAMPLE|10=187|
8=FIX.4.4|9=57|35=0|34=418|49=FIXSIM|52=20180109-03:28:08.313|56=QFSAMPLE|10=173|
8=FIX.4.4|9=57|35=0|34=419|49=FIXSIM|52=20180109-03:28:38.515|56=QFSAMPLE|10=181|
8=FIX.4.4|9=57|35=0|34=420|49=FIXSIM|52=20180109-03:29:08.701|56=QFSAMPLE|10=168|
8=FIX.4.4|9=57|35=0|34=421|49=FIXSIM|52=20180109-03:29:38.887|56=QFSAMPLE|10=187|
8=FIX.4.4|9=57|35=0|34=422|49=FIXSIM|52=20180109-03:30:08.933|56=QFSAMPLE|10=169|
8=FIX.4.4|9=57|35=0|34=423|49=FIXSIM|52=20180109-03:30:38.073|56=QFSAMPLE|10=168|
8=FIX.4.4|9=57|35=0|34=424|49=FIXSIM|52=20180109-03:31:08.275|56=QFSAMPLE|10=171|
8=FIX.4.4|9=57|35=0|34=425|49=FIXSIM|52=20180109-03:31:38.321|56=QFSAMPLE|10=167|
8=FIX.4.4|9=57|35=0|34=426|49=FIXSIM|52=20180109-03:32:08.507|56=QFSAMPLE|10=172|
8=FIX.4.4|9=57|35=0|34=427|49=FIXSIM|52=20180109-03:32:38.693|56=QFSAMPLE|10=182|
8=FIX.4.4|9=57|35=0|34=428|49=FIXSIM|52=20180109-03:33:08.894|56=QFSAMPLE|10=184|
8=FIX.4.4|9=57|35=0|34=429|49=FIXSIM|52=20180109-03:33:38.082|56=QFSAMPLE|10=177|
8=FIX.4.4|9=57|35=0|34=430|49=FIXSIM|52=20180109-03:34:08.096|56=QFSAMPLE|10=172|
8=FIX.4.4|9=57|35=0|34=431|49=FIXSIM|52=20180109-03:34:38.267|56=QFSAMPLE|10=176|
8=FIX.4.4|9=57|35=0|34=432|49=FIXSIM|52=20180109-03:35:08.359|56=QFSAMPLE|10=177|
8=FIX.4.4|9=57|35=0|34=433|49=FIXSIM|52=20180109-03:35:38.498|56=QFSAMPLE|10=185|
8=FIX.4.4|9=57|35=0|34=434|49=FIXSIM|52=20180109-03:36:08.700|56=QFSAMPLE|10=170|
8=FIX.4.4|9=57|35=0|34=435|49=FIXSIM|52=20180109-03:36:38.901|56=QFSAMPLE|10=177|
8=FIX.4.4|9=57|35=0|34=436|49=FIXSIM|52=20180109-03:37:08.916|56=QFSAMPLE|10=182|
8=FIX.4.4|9=57|35=0|34=437|49=FIXSIM|52=20180109-03:37:38.915|56=QFSAMPLE|10=185|
8=FIX.4.4|9=57|35=0|34=438|49=FIXSIM|52=20180109-03:38:08.087|56=QFSAMPLE|10=184|
8=FIX.4.4|9=57|35=0|34=439|49=FIXSIM|52=20180109-03:38:38.117|56=QFSAMPLE|10=182|
8=FIX.4.4|9=57|35=0|34=440|49=FIXSIM|52=20180109-03:39:08.287|56=QFSAMPLE|10=180|
8=FIX.4.4|9=57|35=0|34=441|49=FIXSIM|52=20180109-03:39:38.301|56=QFSAMPLE|10=171|
8=FIX.4.4|9=57|35=0|34=442|49=FIXSIM|52=20180109-03:40:08.409|56=QFSAMPLE|10=170|
8=FIX.4.4|9=57|35=0|34=443|49=FIXSIM|52=20180109-03:40:38.471|56=QFSAMPLE|10=173|
8=FIX.4.4|9=57|35=0|34=444|49=FIXSIM|52=20180109-03:41:08.672|56=QFSAMPLE|10=175|
8=FIX.4.4|9=57|35=0|34=445|49=FIXSIM|52=20180109-03:41:38.687|56=QFSAMPLE|10=185|
8=FIX.4.4|9=57|35=0|34=446|49=FIXSIM|52=20180109-03:42:08.873|56=QFSAMPLE|10=181|
8=FIX.4.4|9=57|35=0|34=447|49=FIXSIM|52=20180109-03:42:38.045|56=QFSAMPLE|10=176|
8=FIX.4.4|9=57|35=0|34=448|49=FIXSIM|52=20180109-03:43:08.059|56=QFSAMPLE|10=180|
8=FIX.4.4|9=57|35=0|34=449|49=FIXSIM|52=20180109-03:43:38.136|56=QFSAMPLE|10=180|
8=FIX.4.4|9=57|35=0|34=450|49=FIXSIM|52=20180109-03:44:08.275|56=QFSAMPLE|10=174|
8=FIX.4.4|9=57|35=0|34=451|49=FIXSIM|52=20180109-03:44:38.321|56=QFSAMPLE|10=170|
8=FIX.4.4|9=57|35=0|34=452|49=FIXSIM|52=20180109-03:45:08.507|56=QFSAMPLE|10=175|
8=FIX.4.4|9=57|35=0|34=453|49=FIXSIM|52=20180109-03:45:38.677|56=QFSAMPLE|10=187|
8=FIX.4.4|9=57|35=0|34=454|49=FIXSIM|52=20180109-03:46:08.676|56=QFSAMPLE|10=185|
8=FIX.4.4|9=57|35=0|34=455|49=FIXSIM|52=20180109-03:46:38.768|56=QFSAMPLE|10=191|
8=FIX.4.4|9=57|35=0|34=456|49=FIXSIM|52=20180109-03:47:08.892|56=QFSAMPLE|10=188|
8=FIX.4.4|9=57|35=0|34=457|49=FIXSIM|52=20180109-03:47:38.922|56=QFSAMPLE|10=186|
8=FIX.4.4|9=57|35=0|34=458|49=FIXSIM|52=20180109-03:48:08.078|56=QFSAMPLE|10=187|
8=FIX.4.4|9=57|35=0|34=459|49=FIXSIM|52=20180109-03:48:38.280|56=QFSAMPLE|10=186|
8=FIX.4.4|9=57|35=0|34=460|49=FIXSIM|52=20180109-03:49:08.466|56=QFSAMPLE|10=182|
8=FIX.4.4|9=57|35=0|34=461|49=FIXSIM|52=20180109-03:49:38.667|56=QFSAMPLE|10=189|
8=FIX.4.4|9=57|35=0|34=462|49=FIXSIM|52=20180109-03:50:08.666|56=QFSAMPLE|10=178|
8=FIX.4.4|9=57|35=0|34=463|49=FIXSIM|52=20180109-03:50:38.868|56=QFSAMPLE|10=186|
8=FIX.4.4|9=57|35=0|34=464|49=FIXSIM|52=20180109-03:51:08.040|56=QFSAMPLE|10=167|
8=FIX.4.4|9=57|35=0|34=465|49=FIXSIM|52=20180109-03:51:38.054|56=QFSAMPLE|10=176|
8=FIX.4.4|9=57|35=0|34=466|49=FIXSIM|52=20180109-03:52:08.256|56=QFSAMPLE|10=179|
8=FIX.4.4|9=57|35=0|34=467|49=FIXSIM|52=20180109-03:52:38.442|56=QFSAMPLE|10=180|
8=FIX.4.4|9=57|35=0|34=468|49=FIXSIM|52=20180109-03:53:08.456|56=QFSAMPLE|10=184|
8=FIX.4.4|9=57|35=0|34=469|49=FIXSIM|52=20180109-03:53:38.455|56=QFSAMPLE|10=187|
8=FIX.4.4|9=57|35=0|34=470|49=FIXSIM|52=20180109-03:54:08.657|56=QFSAMPLE|10=181|
8=FIX.4.4|9=57|35=0|34=471|49=FIXSIM|52=20180109-03:54:38.671|56=QFSAMPLE|10=181|
8=FIX.4.4|9=57|35=0|34=472|49=FIXSIM|52=20180109-03:55:08.810|56=QFSAMPLE|10=175|
8=FIX.4.4|9=57|35=0|34=473|49=FIXSIM|52=20180109-03:55:38.996|56=QFSAMPLE|10=194|
8=FIX.4.4|9=57|35=0|34=474|49=FIXSIM|52=20180109-03:56:08.059|56=QFSAMPLE|10=183|
8=FIX.4.4|9=57|35=0|34=475|49=FIXSIM|52=20180109-03:56:38.089|56=QFSAMPLE|10=190|
8=FIX.4.4|9=57|35=0|34=476|49=FIXSIM|52=20180109-03:57:08.275|56=QFSAMPLE|10=186|
8=FIX.4.4|9=57|35=0|34=477|49=FIXSIM|52=20180109-03:57:38.461|56=QFSAMPLE|10=187|
8=FIX.4.4|9=57|35=0|34=478|49=FIXSIM|52=20180109-03:58:08.460|56=QFSAMPLE|10=185|
8=FIX.4.4|9=57|35=0|34=479|49=FIXSIM|52=20180109-03:58:38.474|56=QFSAMPLE|10=194|
8=FIX.4.4|9=57|35=0|34=480|49=FIXSIM|52=20180109-03:59:08.660|56=QFSAMPLE|10=181|
8=FIX.4.4|9=57|35=0|34=481|49=FIXSIM|52=20180109-03:59:38.846|56=QFSAMPLE|10=191|
8=FIX.4.4|9=57|35=0|34=482|49=FIXSIM|52=20180109-04:00:09.001|56=QFSAMPLE|10=160|
8=FIX.4.4|9=57|35=0|34=483|49=FIXSIM|52=20180109-04:00:39.078|56=QFSAMPLE|10=178|
8=FIX.4.4|9=57|35=0|34=484|49=FIXSIM|52=20180109-04:01:09.248|56=QFSAMPLE|10=176|
8=FIX.4.4|9=57|35=0|34=485|49=FIXSIM|52=20180109-04:01:39.263|56=QFSAMPLE|10=177|
8=FIX.4.4|9=57|35=0|34=486|49=FIXSIM|52=20180109-04:02:09.293|56=QFSAMPLE|10=179|
8=FIX.4.4|9=57|35=0|34=487|49=FIXSIM|52=20180109-04:02:39.479|56=QFSAMPLE|10=189|
8=FIX.4.4|9=57|35=0|34=488|49=FIXSIM|52=20180109-04:03:09.524|56=QFSAMPLE|10=179|
8=FIX.4.4|9=57|35=0|34=489|49=FIXSIM|52=20180109-04:03:39.570|56=QFSAMPLE|10=184|
8=FIX.4.4|9=57|35=0|34=490|49=FIXSIM|52=20180109-04:04:09.615|56=QFSAMPLE|10=174|
8=FIX.4.4|9=57|35=0|34=491|49=FIXSIM|52=20180109-04:04:39.677|56=QFSAMPLE|10=186|
8=FIX.4.4|9=57|35=0|34=492|49=FIXSIM|52=20180109-04:05:09.816|56=QFSAMPLE|10=180|
8=FIX.4.4|9=57|35=0|34=493|49=FIXSIM|52=20180109-04:05:39.861|56=QFSAMPLE|10=184|
8=FIX.4.4|9=57|35=0|34=494|49=FIXSIM|52=20180109-04:06:09.923|56=QFSAMPLE|10=182|
8=FIX.4.4|9=57|35=0|34=495|49=FIXSIM|52=20180109-04:06:39.968|56=QFSAMPLE|10=195|
8=FIX.4.4|9=57|35=0|34=496|49=FIXSIM|52=20180109-04:07:09.000|56=QFSAMPLE|10=171|
8=FIX.4.4|9=57|35=0|34=497|49=FIXSIM|52=20180109-04:07:39.077|56=QFSAMPLE|10=189|
8=FIX.4.4|9=57|35=0|34=498|49=FIXSIM|52=20180109-04:08:09.075|56=QFSAMPLE|10=186|
8=FIX.4.4|9=57|35=0|34=499|49=FIXSIM|52=20180109-04:08:39.074|56=QFSAMPLE|10=189|
8=FIX.4.4|9=57|35=0|34=500|49=FIXSIM|52=20180109-04:09:09.276|56=QFSAMPLE|10=174|
8=FIX.4.4|9=57|35=0|34=501|49=FIXSIM|52=20180109-04:09:39.446|56=QFSAMPLE|10=177|
8=FIX.4.4|9=57|35=0|34=502|49=FIXSIM|52=20180109-04:10:09.617|56=QFSAMPLE|10=167|
8=FIX.4.4|9=57|35=0|34=503|49=FIXSIM|52=20180109-04:10:39.647|56=QFSAMPLE|10=174|
8=FIX.4.4|9=57|35=0|34=504|49=FIXSIM|52=20180109-04:11:09.661|56=QFSAMPLE|10=169|
8=FIX.4.4|9=57|35=0|34=505|49=FIXSIM|52=20180109-04:11:39.707|56=QFSAMPLE|10=174|
8=FIX.4.4|9=57|35=0|34=506|49=FIXSIM|52=20180109-04:12:09.737|56=QFSAMPLE|10=176|
8=FIX.4.4|9=57|35=0|34=507|49=FIXSIM|52=20180109-04:12:39.782|56=QFSAMPLE|10=180|
8=FIX.4.4|9=57|35=0|34=508|49=FIXSIM|52=20180109-04:13:09.797|56=QFSAMPLE|10=185|
8=FIX.4.4|9=57|35=0|34=509|49=FIXSIM|52=20180109-04:13:39.858|56=QFSAMPLE|10=187|
8=FIX.4.4|9=57|35=0|34=510|49=FIXSIM|52=20180109-04:14:09.888|56=QFSAMPLE|10=180|
8=FIX.4.4|9=57|35=0|34=511|49=FIXSIM|52=20180109-04:14:39.933|56=QFSAMPLE|10=175|
8=FIX.4.4|9=57|35=0|34=512|49=FIXSIM|52=20180109-04:15:09.074|56=QFSAMPLE|10=170|
8=FIX.4.4|9=57|35=0|34=513|49=FIXSIM|52=20180109-04:15:39.260|56=QFSAMPLE|10=171|
8=FIX.4.4|9=57|35=0|34=514|49=FIXSIM|52=20180109-04:16:09.259|56=QFSAMPLE|10=178|
8=FIX.4.4|9=57|35=0|34=515|49=FIXSIM|52=20180109-04:16:39.445|56=QFSAMPLE|10=179|
8=FIX.4.4|9=57|35=0|34=516|49=FIXSIM|52=20180109-04:17:09.475|56=QFSAMPLE|10=181|
8=FIX.4.4|9=57|35=0|34=517|49=FIXSIM|52=20180109-04:17:39.630|56=QFSAMPLE|10=178|
8=FIX.4.4|9=57|35=0|34=518|49=FIXSIM|52=20180109-04:18:09.769|56=QFSAMPLE|10=190|
8=FIX.4.4|9=57|35=0|34=519|49=FIXSIM|52=20180109-04:18:39.783|56=QFSAMPLE|10=190|
8=FIX.4.4|9=57|35=0|34=520|49=FIXSIM|52=20180109-04:19:09.813|56=QFSAMPLE|10=174|
8=FIX.4.4|9=57|35=0|34=521|49=FIXSIM|52=20180109-04:19:39.828|56=QFSAMPLE|10=184|
8=FIX.4.4|9=57|35=0|34=522|49=FIXSIM|52=20180109-04:20:09.015|56=QFSAMPLE|10=162|
8=FIX.4.4|9=57|35=0|34=523|49=FIXSIM|52=20180109-04:20:39.186|56=QFSAMPLE|10=175|
8=FIX.4.4|9=57|35=0|34=524|49=FIXSIM|52=20180109-04:21:09.247|56=QFSAMPLE|10=172|
8=FIX.4.4|9=57|35=0|34=525|49=FIXSIM|52=20180109-04:21:39.449|56=QFSAMPLE|10=180|
8=FIX.4.4|9=57|35=0|34=526|49=FIXSIM|52=20180109-04:22:09.463|56=QFSAMPLE|10=175|
8=FIX.4.4|9=57|35=0|34=527|49=FIXSIM|52=20180109-04:22:39.509|56=QFSAMPLE|10=180|
8=FIX.4.4|9=57|35=0|34=528|49=FIXSIM|52=20180109-04:23:09.523|56=QFSAMPLE|10=175|
8=FIX.4.4|9=57|35=0|34=529|49=FIXSIM|52=20180109-04:23:39.537|56=QFSAMPLE|10=184|
8=FIX.4.4|9=57|35=0|34=530|49=FIXSIM|52=20180109-04:24:09.552|56=QFSAMPLE|10=171|
8=FIX.4.4|9=57|35=0|34=531|49=FIXSIM|52=20180109-04:24:39.582|56=QFSAMPLE|10=178|
8=FIX.4.4|9=57|35=0|34=532|49=FIXSIM|52=20180109-04:25:09.612|56=QFSAMPLE|10=171|
8=FIX.4.4|9=57|35=0|34=533|49=FIXSIM|52=20180109-04:25:39.626|56=QFSAMPLE|10=180|
8=FIX.4.4|9=57|35=0|34=534|49=FIXSIM|52=20180109-04:26:09.656|56=QFSAMPLE|10=182|
8=FIX.4.4|9=57|35=0|34=535|49=FIXSIM|52=20180109-04:26:39.655|56=QFSAMPLE|10=185|
8=FIX.4.4|9=57|35=0|34=536|49=FIXSIM|52=20180109-04:27:09.685|56=QFSAMPLE|10=187|
8=FIX.4.4|9=57|35=0|34=537|49=FIXSIM|52=20180109-04:27:39.762|56=QFSAMPLE|10=187|
8=FIX.4.4|9=57|35=0|34=538|49=FIXSIM|52=20180109-04:28:09.823|56=QFSAMPLE|10=184|
8=FIX.4.4|9=57|35=0|34=539|49=FIXSIM|52=20180109-04:28:39.837|56=QFSAMPLE|10=193|
8=FIX.4.4|9=57|35=0|34=540|49=FIXSIM|52=20180109-04:29:09.852|56=QFSAMPLE|10=180|
8=FIX.4.4|9=57|35=0|34=541|49=FIXSIM|52=20180109-04:29:39.866|56=QFSAMPLE|10=189|
8=FIX.4.4|9=57|35=0|34=542|49=FIXSIM|52=20180109-04:30:10.005|56=QFSAMPLE|10=156|
8=FIX.4.4|9=57|35=0|34=543|49=FIXSIM|52=20180109-04:30:40.207|56=QFSAMPLE|10=164|
8=FIX.4.4|9=57|35=0|34=544|49=FIXSIM|52=20180109-04:31:10.206|56=QFSAMPLE|10=162|
8=FIX.4.4|9=57|35=0|34=545|49=FIXSIM|52=20180109-04:31:40.407|56=QFSAMPLE|10=169|
8=FIX.4.4|9=57|35=0|34=546|49=FIXSIM|52=20180109-04:32:10.422|56=QFSAMPLE|10=165|
8=FIX.4.4|9=57|35=0|34=547|49=FIXSIM|52=20180109-04:32:40.436|56=QFSAMPLE|10=174|
8=FIX.4.4|9=57|35=0|34=548|49=FIXSIM|52=20180109-04:33:10.451|56=QFSAMPLE|10=170|
8=FIX.4.4|9=57|35=0|34=549|49=FIXSIM|52=20180109-04:33:40.481|56=QFSAMPLE|10=177|
8=FIX.4.4|9=57|35=0|34=550|49=FIXSIM|52=20180109-04:34:10.511|56=QFSAMPLE|10=161|
8=FIX.4.4|9=57|35=0|34=551|49=FIXSIM|52=20180109-04:34:40.712|56=QFSAMPLE|10=168|
8=FIX.4.4|9=57|35=0|34=552|49=FIXSIM|52=20180109-04:35:10.789|56=QFSAMPLE|10=181|
8=FIX.4.4|9=57|35=0|34=553|49=FIXSIM|52=20180109-04:35:40.819|56=QFSAMPLE|10=179|
8=FIX.4.4|9=57|35=0|34=554|49=FIXSIM|52=20180109-04:36:10.849|56=QFSAMPLE|10=181|
8=FIX.4.4|9=57|35=0|34=555|49=FIXSIM|52=20180109-04:36:40.863|56=QFSAMPLE|10=181|
8=FIX.4.4|9=57|35=0|34=556|49=FIXSIM|52=20180109-04:37:10.878|56=QFSAMPLE|10=186|
8=FIX.4.4|9=57|35=0|34=557|49=FIXSIM|52=20180109-04:37:40.065|56=QFSAMPLE|10=178|
8=FIX.4.4|9=57|35=0|34=558|49=FIXSIM|52=20180109-04:38:10.095|56=QFSAMPLE|10=180|
8=FIX.4.4|9=57|35=0|34=559|49=FIXSIM|52=20180109-04:38:40.110|56=QFSAMPLE|10=172|
8=FIX.4.4|9=57|35=0|34=560|49=FIXSIM|52=20180109-04:39:10.265|56=QFSAMPLE|10=173|
8=FIX.4.4|9=57|35=0|34=561|49=FIXSIM|52=20180109-04:39:40.263|56=QFSAMPLE|10=175|
8=FIX.4.4|9=57|35=0|34=562|49=FIXSIM|52=20180109-04:40:10.371|56=QFSAMPLE|10=165|
8=FIX.4.4|9=57|35=0|34=563|49=FIXSIM|52=20180109-04:40:40.386|56=QFSAMPLE|10=175|
8=FIX.4.4|9=57|35=0|34=564|49=FIXSIM|52=20180109-04:41:10.400|56=QFSAMPLE|10=161|
8=FIX.4.4|9=57|35=0|34=565|49=FIXSIM|52=20180109-04:41:40.430|56=QFSAMPLE|10=168|
8=FIX.4.4|9=57|35=0|34=566|49=FIXSIM|52=20180109-04:42:10.632|56=QFSAMPLE|10=171|
8=FIX.4.4|9=57|35=0|34=567|49=FIXSIM|52=20180109-04:42:40.833|56=QFSAMPLE|10=178|
8=FIX.4.4|9=57|35=0|34=568|49=FIXSIM|52=20180109-04:43:10.848|56=QFSAMPLE|10=183|
8=FIX.4.4|9=57|35=0|34=569|49=FIXSIM|52=20180109-04:43:40.847|56=QFSAMPLE|10=186|
8=FIX.4.4|9=57|35=0|34=570|49=FIXSIM|52=20180109-04:44:10.034|56=QFSAMPLE|10=164|
8=FIX.4.4|9=57|35=0|34=571|49=FIXSIM|52=20180109-04:44:40.220|56=QFSAMPLE|10=165|
8=FIX.4.4|9=57|35=0|34=572|49=FIXSIM|52=20180109-04:45:10.406|56=QFSAMPLE|10=170|
8=FIX.4.4|9=57|35=0|34=573|49=FIXSIM|52=20180109-04:45:40.592|56=QFSAMPLE|10=180|
8=FIX.4.4|9=57|35=0|34=574|49=FIXSIM|52=20180109-04:46:10.653|56=QFSAMPLE|10=177|
8=FIX.4.4|9=57|35=0|34=575|49=FIXSIM|52=20180109-04:46:40.839|56=QFSAMPLE|10=187|
8=FIX.4.4|9=57|35=0|34=576|49=FIXSIM|52=20180109-04:47:10.027|56=QFSAMPLE|10=175|
8=FIX.4.4|9=57|35=0|34=577|49=FIXSIM|52=20180109-04:47:40.197|56=QFSAMPLE|10=187|
8=FIX.4.4|9=57|35=0|34=578|49=FIXSIM|52=20180109-04:48:10.383|56=QFSAMPLE|10=183|
8=FIX.4.4|9=57|35=0|34=579|49=FIXSIM|52=20180109-04:48:40.554|56=QFSAMPLE|10=187|
8=FIX.4.4|9=57|35=0|34=580|49=FIXSIM|52=20180109-04:49:10.568|56=QFSAMPLE|10=182|
8=FIX.4.4|9=57|35=0|34=581|49=FIXSIM|52=20180109-04:49:40.739|56=QFSAMPLE|10=186|
8=FIX.4.4|9=57|35=0|34=582|49=FIXSIM|52=20180109-04:50:10.940|56=QFSAMPLE|10=170|
8=FIX.4.4|9=57|35=0|34=583|49=FIXSIM|52=20180109-04:50:40.128|56=QFSAMPLE|10=172|
8=FIX.4.4|9=57|35=0|34=584|49=FIXSIM|52=20180109-04:51:10.298|56=QFSAMPLE|10=179|
8=FIX.4.4|9=57|35=0|34=585|49=FIXSIM|52=20180109-04:51:40.500|56=QFSAMPLE|10=169|
8=FIX.4.4|9=57|35=0|34=586|49=FIXSIM|52=20180109-04:52:10.670|56=QFSAMPLE|10=176|
8=FIX.4.4|9=57|35=0|34=587|49=FIXSIM|52=20180109-04:52:40.841|56=QFSAMPLE|10=180|
8=FIX.4.4|9=57|35=0|34=588|49=FIXSIM|52=20180109-04:53:11.011|56=QFSAMPLE|10=169|
8=FIX.4.4|9=57|35=0|34=589|49=FIXSIM|52=20180109-04:53:41.181|56=QFSAMPLE|10=181|
8=FIX.4.4|9=57|35=0|34=590|49=FIXSIM|52=20180109-04:54:11.180|56=QFSAMPLE|10=170|
8=FIX.4.4|9=57|35=0|34=591|49=FIXSIM|52=20180109-04:54:41.226|56=QFSAMPLE|10=175|
8=FIX.4.4|9=57|35=5|34=592|49=FIXSIM|52=20180109-04:55:01.506|56=QFSAMPLE|10=179|
8=FIX.4.4|9=55|35=5|34=1|49=FIXSIM|52=20180109-04:55:02.520|56=QFSAMPLE|10=063|
8=FIX.4.4|9=55|35=5|34=1|49=FIXSIM|52=20180109-04:55:32.971|56=QFSAMPLE|10=076|
8=FIX.4.4|9=55|35=5|34=1|49=FIXSIM|52=20180109-04:56:03.204|56=QFSAMPLE|10=064|
8=FIX.4.4|9=55|35=5|34=1|49=FIXSIM|52=20180109-04:56:33.624|56=QFSAMPLE|10=073|
8=FIX.4.4|9=73|35=A|34=1|49=FIXSIM|52=20180109-05:01:05.173|56=QFSAMPLE|98=0|108=30|141=Y|10=144|
8=FIX.4.4|9=61|35=0|34=2|49=FIXSIM|52=20180109-05:01:05.391|56=QFSAMPLE|112=3|10=062|
8=FIX.4.4|9=55|35=0|34=3|49=FIXSIM|52=20180109-05:01:35.577|56=QFSAMPLE|10=070|
8=FIX.4.4|9=55|35=0|34=4|49=FIXSIM|52=20180109-05:02:05.576|56=QFSAMPLE|10=068|
8=FIX.4.4|9=55|35=0|34=5|49=FIXSIM|52=20180109-05:02:35.762|56=QFSAMPLE|10=069|
8=FIX.4.4|9=55|35=0|34=6|49=FIXSIM|52=20180109-05:03:05.184|56=QFSAMPLE|10=066|
8=FIX.4.4|9=55|35=0|34=7|49=FIXSIM|52=20180109-05:03:35.198|56=QFSAMPLE|10=075|
8=FIX.4.4|9=55|35=0|34=8|49=FIXSIM|52=20180109-05:04:05.228|56=QFSAMPLE|10=068|
8=FIX.4.4|9=55|35=0|34=9|49=FIXSIM|52=20180109-05:04:35.258|56=QFSAMPLE|10=075|
8=FIX.4.4|9=56|35=0|34=10|49=FIXSIM|52=20180109-05:05:05.288|56=QFSAMPLE|10=117|
8=FIX.4.4|9=56|35=0|34=11|49=FIXSIM|52=20180109-05:05:35.303|56=QFSAMPLE|10=109|
8=FIX.4.4|9=56|35=0|34=12|49=FIXSIM|52=20180109-05:06:05.317|56=QFSAMPLE|10=113|
8=FIX.4.4|9=56|35=0|34=13|49=FIXSIM|52=20180109-05:06:35.347|56=QFSAMPLE|10=120|
8=FIX.4.4|9=56|35=0|34=14|49=FIXSIM|52=20180109-05:07:05.361|56=QFSAMPLE|10=115|
8=FIX.4.4|9=56|35=0|34=15|49=FIXSIM|52=20180109-05:07:35.376|56=QFSAMPLE|10=125|
8=FIX.4.4|9=56|35=0|34=16|49=FIXSIM|52=20180109-05:08:05.406|56=QFSAMPLE|10=118|
8=FIX.4.4|9=56|35=0|34=17|49=FIXSIM|52=20180109-05:08:35.436|56=QFSAMPLE|10=125|
8=FIX.4.4|9=56|35=0|34=18|49=FIXSIM|52=20180109-05:09:05.450|56=QFSAMPLE|10=120|
8=FIX.4.4|9=56|35=0|34=19|49=FIXSIM|52=20180109-05:09:35.465|56=QFSAMPLE|10=130|
8=FIX.4.4|9=56|35=0|34=20|49=FIXSIM|52=20180109-05:10:05.479|56=QFSAMPLE|10=116|
8=FIX.4.4|9=56|35=0|34=21|49=FIXSIM|52=20180109-05:10:35.493|56=QFSAMPLE|10=116|
8=FIX.4.4|9=56|35=0|34=22|49=FIXSIM|52=20180109-05:11:05.523|56=QFSAMPLE|10=109|
8=FIX.4.4|9=56|35=0|34=23|49=FIXSIM|52=20180109-05:11:35.553|56=QFSAMPLE|10=116|
8=FIX.4.4|9=56|35=0|34=24|49=FIXSIM|52=20180109-05:12:05.568|56=QFSAMPLE|10=121|
8=FIX.4.4|9=56|35=0|34=25|49=FIXSIM|52=20180109-05:12:35.598|56=QFSAMPLE|10=128|
8=FIX.4.4|9=56|35=0|34=26|49=FIXSIM|52=20180109-05:13:05.612|56=QFSAMPLE|10=114|
8=FIX.4.4|9=56|35=0|34=27|49=FIXSIM|52=20180109-05:13:35.627|56=QFSAMPLE|10=124|
8=FIX.4.4|9=56|35=0|34=28|49=FIXSIM|52=20180109-05:14:05.641|56=QFSAMPLE|10=119|
8=FIX.4.4|9=56|35=0|34=29|49=FIXSIM|52=20180109-05:14:35.671|56=QFSAMPLE|10=126|
8=FIX.4.4|9=56|35=0|34=30|49=FIXSIM|52=20180109-05:15:05.701|56=QFSAMPLE|10=110|
8=FIX.4.4|9=56|35=0|34=31|49=FIXSIM|52=20180109-05:15:35.715|56=QFSAMPLE|10=119|
8=FIX.4.4|9=56|35=0|34=32|49=FIXSIM|52=20180109-05:16:05.730|56=QFSAMPLE|10=115|
8=FIX.4.4|9=56|35=0|34=33|49=FIXSIM|52=20180109-05:16:35.744|56=QFSAMPLE|10=124|
8=FIX.4.4|9=56|35=0|34=34|49=FIXSIM|52=20180109-05:17:05.759|56=QFSAMPLE|10=129|
8=FIX.4.4|9=56|35=0|34=35|49=FIXSIM|52=20180109-05:17:35.773|56=QFSAMPLE|10=129|
8=FIX.4.4|9=56|35=0|34=36|49=FIXSIM|52=20180109-05:18:05.787|56=QFSAMPLE|10=133|
8=FIX.4.4|9=56|35=0|34=37|49=FIXSIM|52=20180109-05:18:35.802|56=QFSAMPLE|10=125|
8=FIX.4.4|9=56|35=0|34=38|49=FIXSIM|52=20180109-05:19:05.816|56=QFSAMPLE|10=129|
8=FIX.4.4|9=56|35=0|34=39|49=FIXSIM|52=20180109-05:19:35.831|56=QFSAMPLE|10=130|
8=FIX.4.4|9=56|35=0|34=40|49=FIXSIM|52=20180109-05:20:05.845|56=QFSAMPLE|10=116|
8=FIX.4.4|9=56|35=0|34=41|49=FIXSIM|52=20180109-05:20:35.875|56=QFSAMPLE|10=123|
8=FIX.4.4|9=56|35=0|34=42|49=FIXSIM|52=20180109-05:21:05.889|56=QFSAMPLE|10=127|
8=FIX.4.4|9=56|35=0|34=43|49=FIXSIM|52=20180109-05:21:35.904|56=QFSAMPLE|10=119|
8=FIX.4.4|9=56|35=0|34=44|49=FIXSIM|52=20180109-05:22:05.918|56=QFSAMPLE|10=123|
8=FIX.4.4|9=56|35=0|34=45|49=FIXSIM|52=20180109-05:22:35.933|56=QFSAMPLE|10=124|
8=FIX.4.4|9=56|35=0|34=46|49=FIXSIM|52=20180109-05:23:05.963|56=QFSAMPLE|10=126|
8=FIX.4.4|9=56|35=0|34=47|49=FIXSIM|52=20180109-05:23:35.977|56=QFSAMPLE|10=135|
8=FIX.4.4|9=56|35=0|34=48|49=FIXSIM|52=20180109-05:24:06.007|56=QFSAMPLE|10=119|
8=FIX.4.4|9=56|35=0|34=49|49=FIXSIM|52=20180109-05:24:36.021|56=QFSAMPLE|10=119|
8=FIX.4.4|9=56|35=0|34=50|49=FIXSIM|52=20180109-05:25:06.036|56=QFSAMPLE|10=115|
8=FIX.4.4|9=56|35=0|34=51|49=FIXSIM|52=20180109-05:25:36.050|56=QFSAMPLE|10=115|
8=FIX.4.4|9=56|35=0|34=52|49=FIXSIM|52=20180109-05:26:06.080|56=QFSAMPLE|10=117|
8=FIX.4.4|9=56|35=0|34=53|49=FIXSIM|52=20180109-05:26:36.095|56=QFSAMPLE|10=127|
8=FIX.4.4|9=56|35=0|34=54|49=FIXSIM|52=20180109-05:27:06.109|56=QFSAMPLE|10=122|
8=FIX.4.4|9=56|35=0|34=55|49=FIXSIM|52=20180109-05:27:36.123|56=QFSAMPLE|10=122|
8=FIX.4.4|9=56|35=0|34=56|49=FIXSIM|52=20180109-05:28:06.138|56=QFSAMPLE|10=127|
8=FIX.4.4|9=56|35=0|34=57|49=FIXSIM|52=20180109-05:28:36.152|56=QFSAMPLE|10=127|
8=FIX.4.4|9=56|35=0|34=58|49=FIXSIM|52=20180109-05:29:06.167|56=QFSAMPLE|10=132|
8=FIX.4.4|9=56|35=0|34=59|49=FIXSIM|52=20180109-05:29:36.181|56=QFSAMPLE|10=132|
8=FIX.4.4|9=56|35=0|34=60|49=FIXSIM|52=20180109-05:30:06.195|56=QFSAMPLE|10=118|
8=FIX.4.4|9=56|35=0|34=61|49=FIXSIM|52=20180109-05:30:36.241|56=QFSAMPLE|10=114|
8=FIX.4.4|9=56|35=0|34=62|49=FIXSIM|52=20180109-05:31:06.255|56=QFSAMPLE|10=118|
8=FIX.4.4|9=56|35=0|34=63|49=FIXSIM|52=20180109-05:31:36.270|56=QFSAMPLE|10=119|
8=FIX.4.4|9=56|35=0|34=64|49=FIXSIM|52=20180109-05:32:06.284|56=QFSAMPLE|10=123|
8=FIX.4.4|9=56|35=0|34=65|49=FIXSIM|52=20180109-05:32:36.314|56=QFSAMPLE|10=121|
8=FIX.4.4|9=56|35=0|34=66|49=FIXSIM|52=20180109-05:33:06.329|56=QFSAMPLE|10=126|
8=FIX.4.4|9=56|35=0|34=67|49=FIXSIM|52=20180109-05:33:36.343|56=QFSAMPLE|10=126|
8=FIX.4.4|9=56|35=0|34=68|49=FIXSIM|52=20180109-05:34:06.357|56=QFSAMPLE|10=130|
8=FIX.4.4|9=56|35=0|34=69|49=FIXSIM|52=20180109-05:34:36.372|56=QFSAMPLE|10=131|
8=FIX.4.4|9=56|35=0|34=70|49=FIXSIM|52=20180109-05:35:06.386|56=QFSAMPLE|10=126|
8=FIX.4.4|9=56|35=0|34=71|49=FIXSIM|52=20180109-05:35:36.401|56=QFSAMPLE|10=118|
8=FIX.4.4|9=56|35=0|34=72|49=FIXSIM|52=20180109-05:36:06.415|56=QFSAMPLE|10=122|
8=FIX.4.4|9=56|35=0|34=73|49=FIXSIM|52=20180109-05:36:36.429|56=QFSAMPLE|10=131|
8=FIX.4.4|9=56|35=0|34=74|49=FIXSIM|52=20180109-05:37:06.444|56=QFSAMPLE|10=127|
8=FIX.4.4|9=56|35=0|34=75|49=FIXSIM|52=20180109-05:37:36.458|56=QFSAMPLE|10=136|
8=FIX.4.4|9=56|35=0|34=76|49=FIXSIM|52=20180109-05:38:06.488|56=QFSAMPLE|10=138|
8=FIX.4.4|9=56|35=0|34=77|49=FIXSIM|52=20180109-05:38:36.503|56=QFSAMPLE|10=130|
8=FIX.4.4|9=56|35=0|34=78|49=FIXSIM|52=20180109-05:39:06.517|56=QFSAMPLE|10=134|
8=FIX.4.4|9=56|35=0|34=79|49=FIXSIM|52=20180109-05:39:36.531|56=QFSAMPLE|10=134|
8=FIX.4.4|9=56|35=0|34=80|49=FIXSIM|52=20180109-05:40:06.546|56=QFSAMPLE|10=121|
8=FIX.4.4|9=56|35=0|34=81|49=FIXSIM|52=20180109-05:40:36.576|56=QFSAMPLE|10=128|
8=FIX.4.4|9=56|35=0|34=82|49=FIXSIM|52=20180109-05:41:06.590|56=QFSAMPLE|10=123|
8=FIX.4.4|9=56|35=0|34=83|49=FIXSIM|52=20180109-05:41:36.605|56=QFSAMPLE|10=124|
8=FIX.4.4|9=56|35=0|34=84|49=FIXSIM|52=20180109-05:42:06.619|56=QFSAMPLE|10=128|
8=FIX.4.4|9=56|35=0|34=85|49=FIXSIM|52=20180109-05:42:36.633|56=QFSAMPLE|10=128|
8=FIX.4.4|9=56|35=0|34=86|49=FIXSIM|52=20180109-05:43:06.648|56=QFSAMPLE|10=133|
8=FIX.4.4|9=56|35=0|34=87|49=FIXSIM|52=20180109-05:43:36.662|56=QFSAMPLE|10=133|
8=FIX.4.4|9=56|35=0|34=88|49=FIXSIM|52=20180109-05:44:06.708|56=QFSAMPLE|10=133|
8=FIX.4.4|9=56|35=0|34=89|49=FIXSIM|52=20180109-05:44:36.722|56=QFSAMPLE|10=133|
8=FIX.4.4|9=56|35=0|34=90|49=FIXSIM|52=20180109-05:45:06.737|56=QFSAMPLE|10=129|
8=FIX.4.4|9=56|35=0|34=91|49=FIXSIM|52=20180109-05:45:36.751|56=QFSAMPLE|10=129|
8=FIX.4.4|9=56|35=0|34=92|49=FIXSIM|52=20180109-05:46:06.765|56=QFSAMPLE|10=133|
8=FIX.4.4|9=56|35=0|34=93|49=FIXSIM|52=20180109-05:46:36.795|56=QFSAMPLE|10=140|
8=FIX.4.4|9=56|35=0|34=94|49=FIXSIM|52=20180109-05:47:06.810|56=QFSAMPLE|10=127|
8=FIX.4.4|9=56|35=0|34=95|49=FIXSIM|52=20180109-05:47:36.824|56=QFSAMPLE|10=136|
8=FIX.4.4|9=56|35=0|34=96|49=FIXSIM|52=20180109-05:48:06.839|56=QFSAMPLE|10=141|
8=FIX.4.4|9=56|35=0|34=97|49=FIXSIM|52=20180109-05:48:36.869|56=QFSAMPLE|10=148|
8=FIX.4.4|9=56|35=0|34=98|49=FIXSIM|52=20180109-05:49:06.899|56=QFSAMPLE|10=150|
8=FIX.4.4|9=56|35=0|34=99|49=FIXSIM|52=20180109-05:49:36.913|56=QFSAMPLE|10=141|
8=FIX.4.4|9=57|35=0|34=100|49=FIXSIM|52=20180109-05:50:06.927|56=QFSAMPLE|10=167|
8=FIX.4.4|9=57|35=0|34=101|49=FIXSIM|52=20180109-05:50:36.957|56=QFSAMPLE|10=174|
8=FIX.4.4|9=57|35=0|34=102|49=FIXSIM|52=20180109-05:51:06.972|56=QFSAMPLE|10=170|
8=FIX.4.4|9=57|35=0|34=103|49=FIXSIM|52=20180109-05:51:36.986|56=QFSAMPLE|10=179|
8=FIX.4.4|9=57|35=0|34=104|49=FIXSIM|52=20180109-05:52:07.001|56=QFSAMPLE|10=157|
8=FIX.4.4|9=57|35=0|34=105|49=FIXSIM|52=20180109-05:52:37.015|56=QFSAMPLE|10=166|
8=FIX.4.4|9=57|35=0|34=106|49=FIXSIM|52=20180109-05:53:07.045|56=QFSAMPLE|10=168|
8=FIX.4.4|9=57|35=0|34=107|49=FIXSIM|52=20180109-05:53:37.059|56=QFSAMPLE|10=177|
8=FIX.4.4|9=57|35=0|34=108|49=FIXSIM|52=20180109-05:54:07.089|56=QFSAMPLE|10=179|
8=FIX.4.4|9=57|35=0|34=109|49=FIXSIM|52=20180109-05:54:37.135|56=QFSAMPLE|10=175|
8=FIX.4.4|9=57|35=0|34=110|49=FIXSIM|52=20180109-05:55:07.149|56=QFSAMPLE|10=170|
8=FIX.4.4|9=57|35=0|34=111|49=FIXSIM|52=20180109-05:55:37.179|56=QFSAMPLE|10=177|
8=FIX.4.4|9=57|35=0|34=112|49=FIXSIM|52=20180109-05:56:07.194|56=QFSAMPLE|10=173|
8=FIX.4.4|9=57|35=0|34=113|49=FIXSIM|52=20180109-05:56:37.224|56=QFSAMPLE|10=171|
8=FIX.4.4|9=57|35=0|34=114|49=FIXSIM|52=20180109-05:57:07.254|56=QFSAMPLE|10=173|
8=FIX.4.4|9=57|35=0|34=115|49=FIXSIM|52=20180109-05:57:37.268|56=QFSAMPLE|10=182|
8=FIX.4.4|9=57|35=0|34=116|49=FIXSIM|52=20180109-05:58:07.283|56=QFSAMPLE|10=178|
8=FIX.4.4|9=57|35=0|34=117|49=FIXSIM|52=20180109-05:58:37.297|56=QFSAMPLE|10=187|
8=FIX.4.4|9=57|35=0|34=118|49=FIXSIM|52=20180109-05:59:07.311|56=QFSAMPLE|10=173|
8=FIX.4.4|9=57|35=0|34=119|49=FIXSIM|52=20180109-05:59:37.326|56=QFSAMPLE|10=183|
8=FIX.4.4|9=57|35=0|34=120|49=FIXSIM|52=20180109-06:00:07.340|56=QFSAMPLE|10=155|
8=FIX.4.4|9=57|35=0|34=121|49=FIXSIM|52=20180109-06:00:37.370|56=QFSAMPLE|10=162|
8=FIX.4.4|9=57|35=0|34=122|49=FIXSIM|52=20180109-06:01:07.400|56=QFSAMPLE|10=155|
8=FIX.4.4|9=57|35=0|34=123|49=FIXSIM|52=20180109-06:01:37.430|56=QFSAMPLE|10=162|
8=FIX.4.4|9=57|35=0|34=124|49=FIXSIM|52=20180109-06:02:07.460|56=QFSAMPLE|10=164|
8=FIX.4.4|9=57|35=0|34=125|49=FIXSIM|52=20180109-06:02:37.490|56=QFSAMPLE|10=171|
8=FIX.4.4|9=57|35=0|34=126|49=FIXSIM|52=20180109-06:03:07.505|56=QFSAMPLE|10=167|
8=FIX.4.4|9=57|35=0|34=127|49=FIXSIM|52=20180109-06:03:37.519|56=QFSAMPLE|10=176|
8=FIX.4.4|9=57|35=0|34=128|49=FIXSIM|52=20180109-06:04:07.549|56=QFSAMPLE|10=178|
8=FIX.4.4|9=57|35=0|34=129|49=FIXSIM|52=20180109-06:04:37.579|56=QFSAMPLE|10=185|
8=FIX.4.4|9=57|35=0|34=130|49=FIXSIM|52=20180109-06:05:07.609|56=QFSAMPLE|10=169|
8=FIX.4.4|9=57|35=0|34=131|49=FIXSIM|52=20180109-06:05:37.639|56=QFSAMPLE|10=176|
8=FIX.4.4|9=57|35=0|34=132|49=FIXSIM|52=20180109-06:06:07.685|56=QFSAMPLE|10=176|
8=FIX.4.4|9=57|35=0|34=133|49=FIXSIM|52=20180109-06:06:37.699|56=QFSAMPLE|10=185|
8=FIX.4.4|9=57|35=0|34=134|49=FIXSIM|52=20180109-06:07:07.713|56=QFSAMPLE|10=171|
8=FIX.4.4|9=57|35=0|34=135|49=FIXSIM|52=20180109-06:07:37.743|56=QFSAMPLE|10=178|
8=FIX.4.4|9=57|35=0|34=136|49=FIXSIM|52=20180109-06:08:07.758|56=QFSAMPLE|10=183|
8=FIX.4.4|9=57|35=0|34=137|49=FIXSIM|52=20180109-06:08:37.772|56=QFSAMPLE|10=183|
8=FIX.4.4|9=57|35=0|34=138|49=FIXSIM|52=20180109-06:09:07.802|56=QFSAMPLE|10=176|
8=FIX.4.4|9=57|35=0|34=139|49=FIXSIM|52=20180109-06:09:37.817|56=QFSAMPLE|10=186|
8=FIX.4.4|9=57|35=0|34=140|49=FIXSIM|52=20180109-06:10:07.847|56=QFSAMPLE|10=170|
8=FIX.4.4|9=57|35=0|34=141|49=FIXSIM|52=20180109-06:10:37.877|56=QFSAMPLE|10=177|
8=FIX.4.4|9=57|35=0|34=142|49=FIXSIM|52=20180109-06:11:07.891|56=QFSAMPLE|10=172|
8=FIX.4.4|9=57|35=0|34=143|49=FIXSIM|52=20180109-06:11:37.905|56=QFSAMPLE|10=172|
8=FIX.4.4|9=57|35=0|34=144|49=FIXSIM|52=20180109-06:12:07.920|56=QFSAMPLE|10=168|
8=FIX.4.4|9=57|35=0|34=145|49=FIXSIM|52=20180109-06:12:37.934|56=QFSAMPLE|10=177|
8=FIX.4.4|9=57|35=0|34=146|49=FIXSIM|52=20180109-06:13:07.949|56=QFSAMPLE|10=182|
8=FIX.4.4|9=57|35=0|34=147|49=FIXSIM|52=20180109-06:13:37.979|56=QFSAMPLE|10=189|
8=FIX.4.4|9=57|35=0|34=148|49=FIXSIM|52=20180109-06:14:08.009|56=QFSAMPLE|10=173|
8=FIX.4.4|9=57|35=0|34=149|49=FIXSIM|52=20180109-06:14:38.054|56=QFSAMPLE|10=177|
8=FIX.4.4|9=57|35=0|34=150|49=FIXSIM|52=20180109-06:15:08.084|56=QFSAMPLE|10=170|
8=FIX.4.4|9=57|35=0|34=151|49=FIXSIM|52=20180109-06:15:38.099|56=QFSAMPLE|10=180|
8=FIX.4.4|9=57|35=0|34=152|49=FIXSIM|52=20180109-06:16:08.113|56=QFSAMPLE|10=166|
8=FIX.4.4|9=57|35=0|34=153|49=FIXSIM|52=20180109-06:16:38.127|56=QFSAMPLE|10=175|
8=FIX.4.4|9=57|35=0|34=154|49=FIXSIM|52=20180109-06:17:08.142|56=QFSAMPLE|10=171|
8=FIX.4.4|9=57|35=0|34=155|49=FIXSIM|52=20180109-06:17:38.156|56=QFSAMPLE|10=180|
8=FIX.4.4|9=57|35=0|34=156|49=FIXSIM|52=20180109-06:18:08.171|56=QFSAMPLE|10=176|
8=FIX.4.4|9=57|35=0|34=157|49=FIXSIM|52=20180109-06:18:38.201|56=QFSAMPLE|10=174|
8=FIX.4.4|9=57|35=0|34=158|49=FIXSIM|52=20180109-06:19:08.215|56=QFSAMPLE|10=178|
8=FIX.4.4|9=57|35=0|34=159|49=FIXSIM|52=20180109-06:19:38.229|56=QFSAMPLE|10=187|
8=FIX.4.4|9=57|35=0|34=160|49=FIXSIM|52=20180109-06:20:08.275|56=QFSAMPLE|10=169|
8=FIX.4.4|9=57|35=0|34=161|49=FIXSIM|52=20180109-06:20:38.305|56=QFSAMPLE|10=167|
8=FIX.4.4|9=57|35=0|34=162|49=FIXSIM|52=20180109-06:21:08.319|56=QFSAMPLE|10=171|
8=FIX.4.4|9=57|35=0|34=163|49=FIXSIM|52=20180109-06:21:38.349|56=QFSAMPLE|10=178|
8=FIX.4.4|9=57|35=0|34=164|49=FIXSIM|52=20180109-06:22:08.364|56=QFSAMPLE|10=174|
8=FIX.4.4|9=57|35=0|34=165|49=FIXSIM|52=20180109-06:22:38.378|56=QFSAMPLE|10=183|
8=FIX.4.4|9=57|35=0|34=166|49=FIXSIM|52=20180109-06:23:08.408|56=QFSAMPLE|10=176|
8=FIX.4.4|9=57|35=0|34=167|49=FIXSIM|52=20180109-06:23:38.423|56=QFSAMPLE|10=177|
8=FIX.4.4|9=57|35=0|34=168|49=FIXSIM|52=20180109-06:24:08.453|56=QFSAMPLE|10=179|
8=FIX.4.4|9=57|35=0|34=169|49=FIXSIM|52=20180109-06:24:38.467|56=QFSAMPLE|10=188|
8=FIX.4.4|9=57|35=0|34=170|49=FIXSIM|52=20180109-06:25:08.481|56=QFSAMPLE|10=174|
8=FIX.4.4|9=57|35=0|34=171|49=FIXSIM|52=20180109-06:25:38.511|56=QFSAMPLE|10=172|
8=FIX.4.4|9=57|35=0|34=172|49=FIXSIM|52=20180109-06:26:08.526|56=QFSAMPLE|10=177|
8=FIX.4.4|9=57|35=0|34=173|49=FIXSIM|52=20180109-06:26:38.540|56=QFSAMPLE|10=177|
8=FIX.4.4|9=57|35=0|34=174|49=FIXSIM|52=20180109-06:27:08.555|56=QFSAMPLE|10=182|
8=FIX.4.4|9=57|35=0|34=175|49=FIXSIM|52=20180109-06:27:38.569|56=QFSAMPLE|10=191|
8=FIX.4.4|9=57|35=0|34=176|49=FIXSIM|52=20180109-06:28:08.583|56=QFSAMPLE|10=186|
8=FIX.4.4|9=57|35=0|34=177|49=FIXSIM|52=20180109-06:28:38.598|56=QFSAMPLE|10=196|
8=FIX.4.4|9=57|35=0|34=178|49=FIXSIM|52=20180109-06:29:08.612|56=QFSAMPLE|10=182|
8=FIX.4.4|9=57|35=0|34=179|49=FIXSIM|52=20180109-06:29:38.627|56=QFSAMPLE|10=192|
8=FIX.4.4|9=57|35=0|34=180|49=FIXSIM|52=20180109-06:30:08.641|56=QFSAMPLE|10=169|
8=FIX.4.4|9=57|35=0|34=181|49=FIXSIM|52=20180109-06:30:38.655|56=QFSAMPLE|10=178|
8=FIX.4.4|9=57|35=0|34=182|49=FIXSIM|52=20180109-06:31:08.670|56=QFSAMPLE|10=174|
8=FIX.4.4|9=57|35=0|34=183|49=FIXSIM|52=20180109-06:31:38.684|56=QFSAMPLE|10=183|
8=FIX.4.4|9=57|35=0|34=184|49=FIXSIM|52=20180109-06:32:08.730|56=QFSAMPLE|10=174|
8=FIX.4.4|9=57|35=0|34=185|49=FIXSIM|52=20180109-06:32:38.744|56=QFSAMPLE|10=183|
8=FIX.4.4|9=57|35=0|34=186|49=FIXSIM|52=20180109-06:33:08.759|56=QFSAMPLE|10=188|
8=FIX.4.4|9=57|35=0|34=187|49=FIXSIM|52=20180109-06:33:38.773|56=QFSAMPLE|10=188|
8=FIX.4.4|9=57|35=0|34=188|49=FIXSIM|52=20180109-06:34:08.787|56=QFSAMPLE|10=192|
8=FIX.4.4|9=57|35=0|34=189|49=FIXSIM|52=20180109-06:34:38.802|56=QFSAMPLE|10=184|
8=FIX.4.4|9=57|35=0|34=190|49=FIXSIM|52=20180109-06:35:08.816|56=QFSAMPLE|10=179|
8=FIX.4.4|9=57|35=0|34=191|49=FIXSIM|52=20180109-06:35:38.846|56=QFSAMPLE|10=186|
8=FIX.4.4|9=57|35=0|34=192|49=FIXSIM|52=20180109-06:36:08.876|56=QFSAMPLE|10=188|
8=FIX.4.4|9=57|35=0|34=193|49=FIXSIM|52=20180109-06:36:38.891|56=QFSAMPLE|10=189|
8=FIX.4.4|9=57|35=0|34=194|49=FIXSIM|52=20180109-06:37:08.905|56=QFSAMPLE|10=184|
8=FIX.4.4|9=57|35=0|34=195|49=FIXSIM|52=20180109-06:37:38.919|56=QFSAMPLE|10=193|
8=FIX.4.4|9=57|35=0|34=196|49=FIXSIM|52=20180109-06:38:08.949|56=QFSAMPLE|10=195|
8=FIX.4.4|9=57|35=0|34=197|49=FIXSIM|52=20180109-06:38:38.964|56=QFSAMPLE|10=196|
8=FIX.4.4|9=57|35=0|34=198|49=FIXSIM|52=20180109-06:39:08.978|56=QFSAMPLE|10=200|
8=FIX.4.4|9=57|35=0|34=199|49=FIXSIM|52=20180109-06:39:38.993|56=QFSAMPLE|10=201|
8=FIX.4.4|9=57|35=0|34=200|49=FIXSIM|52=20180109-06:40:09.007|56=QFSAMPLE|10=160|
8=FIX.4.4|9=57|35=0|34=201|49=FIXSIM|52=20180109-06:40:39.037|56=QFSAMPLE|10=167|
8=FIX.4.4|9=57|35=0|34=202|49=FIXSIM|52=20180109-06:41:09.051|56=QFSAMPLE|10=162|
8=FIX.4.4|9=57|35=0|34=203|49=FIXSIM|52=20180109-06:41:39.081|56=QFSAMPLE|10=169|
8=FIX.4.4|9=57|35=0|34=204|49=FIXSIM|52=20180109-06:42:09.111|56=QFSAMPLE|10=162|
8=FIX.4.4|9=57|35=0|34=205|49=FIXSIM|52=20180109-06:42:39.141|56=QFSAMPLE|10=169|
8=FIX.4.4|9=57|35=0|34=206|49=FIXSIM|52=20180109-06:43:09.156|56=QFSAMPLE|10=174|
8=FIX.4.4|9=57|35=0|34=207|49=FIXSIM|52=20180109-06:43:39.170|56=QFSAMPLE|10=174|
8=FIX.4.4|9=57|35=0|34=208|49=FIXSIM|52=20180109-06:44:09.200|56=QFSAMPLE|10=167|
8=FIX.4.4|9=57|35=0|34=209|49=FIXSIM|52=20180109-06:44:39.215|56=QFSAMPLE|10=177|
8=FIX.4.4|9=57|35=0|34=210|49=FIXSIM|52=20180109-06:45:09.416|56=QFSAMPLE|10=170|
8=FIX.4.4|9=57|35=0|34=211|49=FIXSIM|52=20180109-06:45:39.415|56=QFSAMPLE|10=173|
8=FIX.4.4|9=57|35=0|34=212|49=FIXSIM|52=20180109-06:46:09.617|56=QFSAMPLE|10=176|
8=FIX.4.4|9=57|35=0|34=213|49=FIXSIM|52=20180109-06:46:39.678|56=QFSAMPLE|10=187|
8=FIX.4.4|9=57|35=0|34=214|49=FIXSIM|52=20180109-06:47:09.692|56=QFSAMPLE|10=182|
8=FIX.4.4|9=57|35=0|34=215|49=FIXSIM|52=20180109-06:47:39.707|56=QFSAMPLE|10=183|
8=FIX.4.4|9=57|35=0|34=216|49=FIXSIM|52=20180109-06:48:09.721|56=QFSAMPLE|10=178|
8=FIX.4.4|9=57|35=0|34=217|49=FIXSIM|52=20180109-06:48:39.735|56=QFSAMPLE|10=187|
8=FIX.4.4|9=57|35=0|34=218|49=FIXSIM|52=20180109-06:49:09.750|56=QFSAMPLE|10=183|
8=FIX.4.4|9=57|35=0|34=219|49=FIXSIM|52=20180109-06:49:39.764|56=QFSAMPLE|10=192|
8=FIX.4.4|9=57|35=0|34=220|49=FIXSIM|52=20180109-06:50:09.779|56=QFSAMPLE|10=179|
8=FIX.4.4|9=57|35=0|34=221|49=FIXSIM|52=20180109-06:50:39.809|56=QFSAMPLE|10=177|
8=FIX.4.4|9=57|35=0|34=222|49=FIXSIM|52=20180109-06:51:09.823|56=QFSAMPLE|10=172|
8=FIX.4.4|9=57|35=0|34=223|49=FIXSIM|52=20180109-06:51:39.853|56=QFSAMPLE|10=179|
8=FIX.4.4|9=57|35=0|34=224|49=FIXSIM|52=20180109-06:52:09.883|56=QFSAMPLE|10=181|
8=FIX.4.4|9=57|35=0|34=225|49=FIXSIM|52=20180109-06:52:39.897|56=QFSAMPLE|10=190|
8=FIX.4.4|9=57|35=0|34=226|49=FIXSIM|52=20180109-06:53:09.912|56=QFSAMPLE|10=177|
8=FIX.4.4|9=57|35=0|34=227|49=FIXSIM|52=20180109-06:53:39.942|56=QFSAMPLE|10=184|
8=FIX.4.4|9=57|35=0|34=228|49=FIXSIM|52=20180109-06:54:09.956|56=QFSAMPLE|10=188|
8=FIX.4.4|9=57|35=0|34=229|49=FIXSIM|52=20180109-06:54:39.971|56=QFSAMPLE|10=189|
8=FIX.4.4|9=57|35=0|34=230|49=FIXSIM|52=20180109-06:55:09.985|56=QFSAMPLE|10=184|
8=FIX.4.4|9=57|35=0|34=231|49=FIXSIM|52=20180109-06:55:39.017|56=QFSAMPLE|10=174|
8=FIX.4.4|9=57|35=0|34=232|49=FIXSIM|52=20180109-06:56:09.015|56=QFSAMPLE|10=171|
8=FIX.4.4|9=57|35=0|34=233|49=FIXSIM|52=20180109-06:56:39.045|56=QFSAMPLE|10=178|
8=FIX.4.4|9=57|35=0|34=234|49=FIXSIM|52=20180109-06:57:09.044|56=QFSAMPLE|10=176|
8=FIX.4.4|9=57|35=0|34=235|49=FIXSIM|52=20180109-06:57:39.230|56=QFSAMPLE|10=177|
8=FIX.4.4|9=57|35=0|34=236|49=FIXSIM|52=20180109-06:58:09.260|56=QFSAMPLE|10=179|
8=FIX.4.4|9=57|35=0|34=237|49=FIXSIM|52=20180109-06:58:39.431|56=QFSAMPLE|10=183|
8=FIX.4.4|9=57|35=0|34=238|49=FIXSIM|52=20180109-06:59:09.617|56=QFSAMPLE|10=188|
8=FIX.4.4|9=57|35=0|34=239|49=FIXSIM|52=20180109-06:59:39.615|56=QFSAMPLE|10=190|
8=FIX.4.4|9=57|35=0|34=240|49=FIXSIM|52=20180109-07:00:09.817|56=QFSAMPLE|10=170|
8=FIX.4.4|9=57|35=0|34=241|49=FIXSIM|52=20180109-07:00:39.878|56=QFSAMPLE|10=181|
8=FIX.4.4|9=232|35=8|34=242|49=FIXSIM|52=20180109-07:01:01.905|56=QFSAMPLE|1=TEST1234|6=0|11=QO37NA54U3C8NTYKHDT15N4_0|14=0|17=2636510780617342000|31=0|32=0|37=2636510780617342000|38=100|39=0|54=1|55=0700|60=20180109-07:01:01|150=0|151=100|207=HKE|10=226|
8=FIX.4.4|9=234|35=8|34=243|49=FIXSIM|52=20180109-07:01:02.046|56=QFSAMPLE|1=TEST1234|6=0|11=QO37NA54U3C8NTZ70I315N5_0|14=0|17=3636510780620306000|31=0|32=0|37=3636510780620306000|38=2000|39=0|54=1|55=0992|60=20180109-07:01:02|150=0|151=2000|207=HKE|10=002|
8=FIX.4.4|9=233|35=8|34=244|49=FIXSIM|52=20180109-07:01:02.217|56=QFSAMPLE|1=TEST1234|6=0|11=QO37NA54U3C8NTZWKRD15N6_0|14=0|17=4636510780621866000|31=0|32=0|37=4636510780621866000|38=1000|39=0|54=1|55=981|60=20180109-07:01:02|150=0|151=1000|207=HKE|10=062|
8=FIX.4.4|9=234|35=8|34=245|49=FIXSIM|52=20180109-07:01:02.342|56=QFSAMPLE|1=TEST1234|6=0|11=QO37NA54U3C8NU0LOVQ15N7_0|14=0|17=5636510780623114000|31=0|32=0|37=5636510780623114000|38=1000|39=0|54=1|55=1357|60=20180109-07:01:02|150=0|151=1000|207=HKE|10=057|
8=FIX.4.4|9=242|35=8|34=246|49=FIXSIM|52=20180109-07:01:03.793|56=QFSAMPLE|1=TEST1234|6=25|11=QO37NA54U3C8NTZ70I315N5_0|14=1000|17=6636510780637154000|31=25|32=1000|37=6636510780637154000|38=2000|39=1|54=1|55=0992|60=20180109-07:01:03|150=F|151=1000|207=HKE|10=205|
8=FIX.4.4|9=239|35=8|34=247|49=FIXSIM|52=20180109-07:01:03.933|56=QFSAMPLE|1=TEST1234|6=25|11=QO37NA54U3C8NU0LOVQ15N7_0|14=500|17=7636510780639026000|31=25|32=500|37=7636510780639026000|38=1000|39=1|54=1|55=1357|60=20180109-07:01:03|150=F|151=500|207=HKE|10=129|
8=FIX.4.4|9=240|35=8|34=248|49=FIXSIM|52=20180109-07:01:04.058|56=QFSAMPLE|1=TEST1234|6=25|11=QO37NA54U3C8NTZ70I315N5_0|14=1500|17=8636510780640430000|31=25|32=500|37=8636510780640430000|38=2000|39=1|54=1|55=0992|60=20180109-07:01:04|150=F|151=500|207=HKE|10=104|
8=FIX.4.4|9=235|35=8|34=249|49=FIXSIM|52=20180109-07:01:04.214|56=QFSAMPLE|1=TEST1234|6=25|11=QO37NA54U3C8NTYKHDT15N4_0|14=50|17=9636510780641834000|31=25|32=50|37=9636510780641834000|38=100|39=1|54=1|55=0700|60=20180109-07:01:04|150=F|151=50|207=HKE|10=194|
8=FIX.4.4|9=241|35=8|34=250|49=FIXSIM|52=20180109-07:01:04.386|56=QFSAMPLE|1=TEST1234|6=25|11=QO37NA54U3C8NU0LOVQ15N7_0|14=750|17=10636510780643550000|31=25|32=250|37=10636510780643550000|38=1000|39=1|54=1|55=1357|60=20180109-07:01:04|150=F|151=250|207=HKE|10=209|
8=FIX.4.4|9=240|35=8|34=251|49=FIXSIM|52=20180109-07:01:04.511|56=QFSAMPLE|1=TEST1234|6=25|11=QO37NA54U3C8NTZWKRD15N6_0|14=500|17=11636510780644798000|31=25|32=500|37=11636510780644798000|38=1000|39=1|54=1|55=981|60=20180109-07:01:04|150=F|151=500|207=HKE|10=204|
8=FIX.4.4|9=240|35=8|34=252|49=FIXSIM|52=20180109-07:01:04.651|56=QFSAMPLE|1=TEST1234|6=25|11=QO37NA54U3C8NTZWKRD15N6_0|14=750|17=12636510780646202000|31=25|32=250|37=12636510780646202000|38=1000|39=1|54=1|55=981|60=20180109-07:01:04|150=F|151=250|207=HKE|10=187|
8=FIX.4.4|9=241|35=8|34=253|49=FIXSIM|52=20180109-07:01:04.791|56=QFSAMPLE|1=TEST1234|6=25|11=QO37NA54U3C8NU0LOVQ15N7_0|14=875|17=13636510780647606000|31=25|32=125|37=13636510780647606000|38=1000|39=1|54=1|55=1357|60=20180109-07:01:04|150=F|151=125|207=HKE|10=240|
8=FIX.4.4|9=239|35=8|34=254|49=FIXSIM|52=20180109-07:01:04.916|56=QFSAMPLE|1=TEST1234|6=25|11=QO37NA54U3C8NU0LOVQ15N7_0|14=937|17=14636510780649010000|31=25|32=62|37=14636510780649010000|38=1000|39=1|54=1|55=1357|60=20180109-07:01:04|150=F|151=63|207=HKE|10=135|
8=FIX.4.4|9=237|35=8|34=255|49=FIXSIM|52=20180109-07:01:05.072|56=QFSAMPLE|1=TEST1234|6=25|11=QO37NA54U3C8NTYKHDT15N4_0|14=75|17=15636510780650414000|31=25|32=25|37=15636510780650414000|38=100|39=1|54=1|55=0700|60=20180109-07:01:05|150=F|151=25|207=HKE|10=030|
8=FIX.4.4|9=242|35=8|34=256|49=FIXSIM|52=20180109-07:01:05.244|56=QFSAMPLE|1=TEST1234|6=25|11=QO37NA54U3C8NTZ70I315N5_0|14=1750|17=16636510780652130000|31=25|32=250|37=16636510780652130000|38=2000|39=1|54=1|55=0992|60=20180109-07:01:05|150=F|151=250|207=HKE|10=209|
8=FIX.4.4|9=237|35=8|34=257|49=FIXSIM|52=20180109-07:01:05.384|56=QFSAMPLE|1=TEST1234|6=25|11=QO37NA54U3C8NTYKHDT15N4_0|14=87|17=17636510780653534000|31=25|32=12|37=17636510780653534000|38=100|39=1|54=1|55=0700|60=20180109-07:01:05|150=F|151=13|207=HKE|10=050|
8=FIX.4.4|9=240|35=8|34=258|49=FIXSIM|52=20180109-07:01:05.571|56=QFSAMPLE|1=TEST1234|6=25|11=QO37NA54U3C8NTZWKRD15N6_0|14=875|17=18636510780655250000|31=25|32=125|37=18636510780655250000|38=1000|39=1|54=1|55=981|60=20180109-07:01:05|150=F|151=125|207=HKE|10=224|
8=FIX.4.4|9=242|35=8|34=259|49=FIXSIM|52=20180109-07:01:05.712|56=QFSAMPLE|1=TEST1234|6=25|11=QO37NA54U3C8NTZ70I315N5_0|14=1875|17=19636510780656966000|31=25|32=125|37=19636510780656966000|38=2000|39=1|54=1|55=0992|60=20180109-07:01:05|150=F|151=125|207=HKE|10=014|
8=FIX.4.4|9=240|35=8|34=260|49=FIXSIM|52=20180109-07:01:05.837|56=QFSAMPLE|1=TEST1234|6=25|11=QO37NA54U3C8NTZ70I315N5_0|14=1937|17=20636510780658214000|31=25|32=62|37=20636510780658214000|38=2000|39=1|54=1|55=0992|60=20180109-07:01:05|150=F|151=63|207=HKE|10=132|
8=FIX.4.4|9=238|35=8|34=261|49=FIXSIM|52=20180109-07:01:05.993|56=QFSAMPLE|1=TEST1234|6=25|11=QO37NA54U3C8NTZWKRD15N6_0|14=937|17=21636510780659774000|31=25|32=62|37=21636510780659774000|38=1000|39=1|54=1|55=981|60=20180109-07:01:05|150=F|151=63|207=HKE|10=155|
8=FIX.4.4|9=238|35=8|34=262|49=FIXSIM|52=20180109-07:01:06.117|56=QFSAMPLE|1=TEST1234|6=25|11=QO37NA54U3C8NTZWKRD15N6_0|14=968|17=22636510780661022000|31=25|32=31|37=22636510780661022000|38=1000|39=1|54=1|55=981|60=20180109-07:01:06|150=F|151=32|207=HKE|10=102|
8=FIX.4.4|9=239|35=8|34=263|49=FIXSIM|52=20180109-07:01:06.258|56=QFSAMPLE|1=TEST1234|6=25|11=QO37NA54U3C8NU0LOVQ15N7_0|14=968|17=23636510780662426000|31=25|32=31|37=23636510780662426000|38=1000|39=1|54=1|55=1357|60=20180109-07:01:06|150=F|151=32|207=HKE|10=146|
8=FIX.4.4|9=235|35=8|34=264|49=FIXSIM|52=20180109-07:01:06.398|56=QFSAMPLE|1=TEST1234|6=25|11=QO37NA54U3C8NTYKHDT15N4_0|14=93|17=24636510780663674000|31=25|32=6|37=24636510780663674000|38=100|39=1|54=1|55=0700|60=20180109-07:01:06|150=F|151=7|207=HKE|10=224|
8=FIX.4.4|9=240|35=8|34=265|49=FIXSIM|52=20180109-07:01:06.539|56=QFSAMPLE|1=TEST1234|6=25|11=QO37NA54U3C8NTZ70I315N5_0|14=1968|17=25636510780665234000|31=25|32=31|37=25636510780665234000|38=2000|39=1|54=1|55=0992|60=20180109-07:01:06|150=F|151=32|207=HKE|10=144|
8=FIX.4.4|9=240|35=8|34=266|49=FIXSIM|52=20180109-07:01:06.695|56=QFSAMPLE|1=TEST1234|6=25|11=QO37NA54U3C8NTZ70I315N5_0|14=1984|17=26636510780666794000|31=25|32=16|37=26636510780666794000|38=2000|39=1|54=1|55=0992|60=20180109-07:01:06|150=F|151=16|207=HKE|10=177|
8=FIX.4.4|9=239|35=8|34=267|49=FIXSIM|52=20180109-07:01:06.819|56=QFSAMPLE|1=TEST1234|6=25|11=QO37NA54U3C8NU0LOVQ15N7_0|14=984|17=27636510780668042000|31=25|32=16|37=27636510780668042000|38=1000|39=1|54=1|55=1357|60=20180109-07:01:06|150=F|151=16|207=HKE|10=164|
8=FIX.4.4|9=238|35=8|34=268|49=FIXSIM|52=20180109-07:01:06.944|56=QFSAMPLE|1=TEST1234|6=25|11=QO37NA54U3C8NTZWKRD15N6_0|14=984|17=28636510780669290000|31=25|32=16|37=28636510780669290000|38=1000|39=1|54=1|55=981|60=20180109-07:01:06|150=F|151=16|207=HKE|10=161|
8=FIX.4.4|9=236|35=8|34=269|49=FIXSIM|52=20180109-07:01:07.069|56=QFSAMPLE|1=TEST1234|6=25|11=QO37NA54U3C8NTZWKRD15N6_0|14=992|17=29636510780670538000|31=25|32=8|37=29636510780670538000|38=1000|39=1|54=1|55=981|60=20180109-07:01:07|150=F|151=8|207=HKE|10=061|
8=FIX.4.4|9=235|35=8|34=270|49=FIXSIM|52=20180109-07:01:07.194|56=QFSAMPLE|1=TEST1234|6=25|11=QO37NA54U3C8NTYKHDT15N4_0|14=96|17=30636510780671786000|31=25|32=3|37=30636510780671786000|38=100|39=1|54=1|55=0700|60=20180109-07:01:07|150=F|151=4|207=HKE|10=214|
8=FIX.4.4|9=236|35=8|34=271|49=FIXSIM|52=20180109-07:01:07.350|56=QFSAMPLE|1=TEST1234|6=25|11=QO37NA54U3C8NTZWKRD15N6_0|14=996|17=31636510780673190000|31=25|32=4|37=31636510780673190000|38=1000|39=1|54=1|55=981|60=20180109-07:01:07|150=F|151=4|207=HKE|10=023|
8=FIX.4.4|9=238|35=8|34=272|49=FIXSIM|52=20180109-07:01:07.490|56=QFSAMPLE|1=TEST1234|6=25|11=QO37NA54U3C8NTZ70I315N5_0|14=1992|17=32636510780674594000|31=25|32=8|37=32636510780674594000|38=2000|39=1|54=1|55=0992|60=20180109-07:01:07|150=F|151=8|207=HKE|10=069|
8=FIX.4.4|9=235|35=8|34=273|49=FIXSIM|52=20180109-07:01:07.646|56=QFSAMPLE|1=TEST1234|6=25|11=QO37NA54U3C8NTYKHDT15N4_0|14=98|17=33636510780676154000|31=25|32=2|37=33636510780676154000|38=100|39=1|54=1|55=0700|60=20180109-07:01:07|150=F|151=2|207=HKE|10=212|
8=FIX.4.4|9=238|35=8|34=274|49=FIXSIM|52=20180109-07:01:07.818|56=QFSAMPLE|1=TEST1234|6=25|11=QO37NA54U3C8NTZ70I315N5_0|14=1996|17=34636510780678026000|31=25|32=4|37=34636510780678026000|38=2000|39=1|54=1|55=0992|60=20180109-07:01:07|150=F|151=4|207=HKE|10=063|
8=FIX.4.4|9=235|35=8|34=275|49=FIXSIM|52=20180109-07:01:07.958|56=QFSAMPLE|1=TEST1234|6=25|11=QO37NA54U3C8NTYKHDT15N4_0|14=99|17=35636510780679274000|31=25|32=1|37=35636510780679274000|38=100|39=1|54=1|55=0700|60=20180109-07:01:07|150=F|151=1|207=HKE|10=235|
8=FIX.4.4|9=238|35=8|34=276|49=FIXSIM|52=20180109-07:01:08.083|56=QFSAMPLE|1=TEST1234|6=25|11=QO37NA54U3C8NTZ70I315N5_0|14=1998|17=36636510780680678000|31=25|32=2|37=36636510780680678000|38=2000|39=1|54=1|55=0992|60=20180109-07:01:08|150=F|151=2|207=HKE|10=075|
8=FIX.4.4|9=236|35=8|34=277|49=FIXSIM|52=20180109-07:01:08.208|56=QFSAMPLE|1=TEST1234|6=25|11=QO37NA54U3C8NTZWKRD15N6_0|14=998|17=37636510780681926000|31=25|32=2|37=37636510780681926000|38=1000|39=1|54=1|55=981|60=20180109-07:01:08|150=F|151=2|207=HKE|10=055|
8=FIX.4.4|9=237|35=8|34=278|49=FIXSIM|52=20180109-07:01:08.333|56=QFSAMPLE|1=TEST1234|6=25|11=QO37NA54U3C8NU0LOVQ15N7_0|14=992|17=38636510780683174000|31=25|32=8|37=38636510780683174000|38=1000|39=1|54=1|55=1357|60=20180109-07:01:08|150=F|151=8|207=HKE|10=074|
8=FIX.4.4|9=237|35=8|34=279|49=FIXSIM|52=20180109-07:01:08.457|56=QFSAMPLE|1=TEST1234|6=25|11=QO37NA54U3C8NU0LOVQ15N7_0|14=996|17=39636510780684422000|31=25|32=4|37=39636510780684422000|38=1000|39=1|54=1|55=1357|60=20180109-07:01:08|150=F|151=4|207=HKE|10=074|
8=FIX.4.4|9=236|35=8|34=280|49=FIXSIM|52=20180109-07:01:08.598|56=QFSAMPLE|1=TEST1234|6=25|11=QO37NA54U3C8NTYKHDT15N4_0|14=100|17=40636510780685826000|31=25|32=1|37=40636510780685826000|38=100|39=2|54=1|55=0700|60=20180109-07:01:08|150=F|151=0|207=HKE|10=001|
8=FIX.4.4|9=237|35=8|34=281|49=FIXSIM|52=20180109-07:01:08.738|56=QFSAMPLE|1=TEST1234|6=25|11=QO37NA54U3C8NU0LOVQ15N7_0|14=998|17=41636510780687230000|31=25|32=2|37=41636510780687230000|38=1000|39=1|54=1|55=1357|60=20180109-07:01:08|150=F|151=2|207=HKE|10=053|
8=FIX.4.4|9=238|35=8|34=282|49=FIXSIM|52=20180109-07:01:08.879|56=QFSAMPLE|1=TEST1234|6=25|11=QO37NA54U3C8NTZ70I315N5_0|14=1999|17=42636510780688634000|31=25|32=1|37=42636510780688634000|38=2000|39=1|54=1|55=0992|60=20180109-07:01:08|150=F|151=1|207=HKE|10=078|
8=FIX.4.4|9=236|35=8|34=283|49=FIXSIM|52=20180109-07:01:09.003|56=QFSAMPLE|1=TEST1234|6=25|11=QO37NA54U3C8NTZWKRD15N6_0|14=999|17=43636510780689882000|31=25|32=1|37=43636510780689882000|38=1000|39=1|54=1|55=981|60=20180109-07:01:08|150=F|151=1|207=HKE|10=057|
8=FIX.4.4|9=237|35=8|34=284|49=FIXSIM|52=20180109-07:01:09.144|56=QFSAMPLE|1=TEST1234|6=25|11=QO37NA54U3C8NU0LOVQ15N7_0|14=999|17=44636510780691286000|31=25|32=1|37=44636510780691286000|38=1000|39=1|54=1|55=1357|60=20180109-07:01:09|150=F|151=1|207=HKE|10=066|
8=FIX.4.4|9=237|35=8|34=285|49=FIXSIM|52=20180109-07:01:09.253|56=QFSAMPLE|1=TEST1234|6=25|11=QO37NA54U3C8NTZWKRD15N6_0|14=1000|17=45636510780692378000|31=25|32=1|37=45636510780692378000|38=1000|39=2|54=1|55=981|60=20180109-07:01:09|150=F|151=0|207=HKE|10=082|
8=FIX.4.4|9=238|35=8|34=286|49=FIXSIM|52=20180109-07:01:09.409|56=QFSAMPLE|1=TEST1234|6=25|11=QO37NA54U3C8NTZ70I315N5_0|14=2000|17=46636510780693782000|31=25|32=1|37=46636510780693782000|38=2000|39=2|54=1|55=0992|60=20180109-07:01:09|150=F|151=0|207=HKE|10=055|
8=FIX.4.4|9=238|35=8|34=287|49=FIXSIM|52=20180109-07:01:09.565|56=QFSAMPLE|1=TEST1234|6=25|11=QO37NA54U3C8NU0LOVQ15N7_0|14=1000|17=47636510780695342000|31=25|32=1|37=47636510780695342000|38=1000|39=2|54=1|55=1357|60=20180109-07:01:09|150=F|151=0|207=HKE|10=099|
8=FIX.4.4|9=57|35=0|34=288|49=FIXSIM|52=20180109-07:01:39.907|56=QFSAMPLE|10=186|
8=FIX.4.4|9=57|35=0|34=289|49=FIXSIM|52=20180109-07:02:09.921|56=QFSAMPLE|10=181|
8=FIX.4.4|9=57|35=0|34=290|49=FIXSIM|52=20180109-07:02:39.936|56=QFSAMPLE|10=182|
8=FIX.4.4|9=57|35=0|34=291|49=FIXSIM|52=20180109-07:03:09.950|56=QFSAMPLE|10=177|
8=FIX.4.4|9=57|35=0|34=292|49=FIXSIM|52=20180109-07:03:39.965|56=QFSAMPLE|10=187|
8=FIX.4.4|9=57|35=0|34=293|49=FIXSIM|52=20180109-07:04:09.979|56=QFSAMPLE|10=191|
8=FIX.4.4|9=57|35=0|34=294|49=FIXSIM|52=20180109-07:04:39.993|56=QFSAMPLE|10=191|
8=FIX.4.4|9=57|35=0|34=295|49=FIXSIM|52=20180109-07:05:10.008|56=QFSAMPLE|10=169|
8=FIX.4.4|9=57|35=0|34=296|49=FIXSIM|52=20180109-07:05:40.022|56=QFSAMPLE|10=169|
8=FIX.4.4|9=57|35=0|34=297|49=FIXSIM|52=20180109-07:06:10.037|56=QFSAMPLE|10=174|
8=FIX.4.4|9=57|35=0|34=298|49=FIXSIM|52=20180109-07:06:40.051|56=QFSAMPLE|10=174|
8=FIX.4.4|9=57|35=0|34=299|49=FIXSIM|52=20180109-07:07:10.065|56=QFSAMPLE|10=178|
8=FIX.4.4|9=57|35=0|34=300|49=FIXSIM|52=20180109-07:07:40.080|56=QFSAMPLE|10=161|
8=FIX.4.4|9=57|35=0|34=301|49=FIXSIM|52=20180109-07:08:10.094|56=QFSAMPLE|10=165|
8=FIX.4.4|9=57|35=0|34=302|49=FIXSIM|52=20180109-07:08:40.109|56=QFSAMPLE|10=166|
8=FIX.4.4|9=57|35=0|34=303|49=FIXSIM|52=20180109-07:09:10.107|56=QFSAMPLE|10=163|
8=FIX.4.4|9=57|35=0|34=304|49=FIXSIM|52=20180109-07:09:40.122|56=QFSAMPLE|10=164|
8=FIX.4.4|9=57|35=0|34=305|49=FIXSIM|52=20180109-07:10:10.152|56=QFSAMPLE|10=157|
8=FIX.4.4|9=57|35=0|34=306|49=FIXSIM|52=20180109-07:10:40.166|56=QFSAMPLE|10=166|
8=FIX.4.4|9=57|35=0|34=307|49=FIXSIM|52=20180109-07:11:10.181|56=QFSAMPLE|10=162|
8=FIX.4.4|9=57|35=0|34=308|49=FIXSIM|52=20180109-07:11:40.179|56=QFSAMPLE|10=173|
8=FIX.4.4|9=57|35=0|34=309|49=FIXSIM|52=20180109-07:12:10.381|56=QFSAMPLE|10=167|
8=FIX.4.4|9=57|35=0|34=310|49=FIXSIM|52=20180109-07:12:40.395|56=QFSAMPLE|10=167|
8=FIX.4.4|9=57|35=0|34=311|49=FIXSIM|52=20180109-07:13:10.394|56=QFSAMPLE|10=165|
8=FIX.4.4|9=57|35=0|34=312|49=FIXSIM|52=20180109-07:13:40.409|56=QFSAMPLE|10=166|
8=FIX.4.4|9=57|35=0|34=313|49=FIXSIM|52=20180109-07:14:10.423|56=QFSAMPLE|10=161|
8=FIX.4.4|9=57|35=0|34=314|49=FIXSIM|52=20180109-07:14:40.437|56=QFSAMPLE|10=170|
8=FIX.4.4|9=57|35=0|34=315|49=FIXSIM|52=20180109-07:15:10.452|56=QFSAMPLE|10=166|
8=FIX.4.4|9=57|35=0|34=316|49=FIXSIM|52=20180109-07:15:40.466|56=QFSAMPLE|10=175|
8=FIX.4.4|9=57|35=0|34=317|49=FIXSIM|52=20180109-07:16:10.668|56=QFSAMPLE|10=178|
8=FIX.4.4|9=57|35=0|34=318|49=FIXSIM|52=20180109-07:16:40.682|56=QFSAMPLE|10=178|
8=FIX.4.4|9=57|35=0|34=319|49=FIXSIM|52=20180109-07:17:10.697|56=QFSAMPLE|10=183|
8=FIX.4.4|9=57|35=0|34=320|49=FIXSIM|52=20180109-07:17:40.711|56=QFSAMPLE|10=165|
8=FIX.4.4|9=57|35=0|34=321|49=FIXSIM|52=20180109-07:18:10.741|56=QFSAMPLE|10=167|
8=FIX.4.4|9=57|35=0|34=322|49=FIXSIM|52=20180109-07:18:40.740|56=QFSAMPLE|10=170|
8=FIX.4.4|9=57|35=0|34=323|49=FIXSIM|52=20180109-07:19:10.754|56=QFSAMPLE|10=174|
8=FIX.4.4|9=57|35=0|34=324|49=FIXSIM|52=20180109-07:19:40.753|56=QFSAMPLE|10=177|
8=FIX.4.4|9=57|35=0|34=325|49=FIXSIM|52=20180109-07:20:10.767|56=QFSAMPLE|10=172|
8=FIX.4.4|9=57|35=0|34=326|49=FIXSIM|52=20180109-07:20:40.782|56=QFSAMPLE|10=173|
8=FIX.4.4|9=57|35=0|34=327|49=FIXSIM|52=20180109-07:21:10.812|56=QFSAMPLE|10=166|
8=FIX.4.4|9=57|35=0|34=328|49=FIXSIM|52=20180109-07:21:40.811|56=QFSAMPLE|10=169|
8=FIX.4.4|9=57|35=0|34=329|49=FIXSIM|52=20180109-07:22:10.014|56=QFSAMPLE|10=163|
8=FIX.4.4|9=57|35=0|34=330|49=FIXSIM|52=20180109-07:22:40.169|56=QFSAMPLE|10=169|
8=FIX.4.4|9=57|35=0|34=331|49=FIXSIM|52=20180109-07:23:10.183|56=QFSAMPLE|10=164|
8=FIX.4.4|9=57|35=0|34=332|49=FIXSIM|52=20180109-07:23:40.182|56=QFSAMPLE|10=167|
8=FIX.4.4|9=57|35=0|34=333|49=FIXSIM|52=20180109-07:24:10.383|56=QFSAMPLE|10=169|
8=FIX.4.4|9=57|35=0|34=334|49=FIXSIM|52=20180109-07:24:40.585|56=QFSAMPLE|10=177|
8=FIX.4.4|9=57|35=0|34=335|49=FIXSIM|52=20180109-07:25:10.584|56=QFSAMPLE|10=175|
8=FIX.4.4|9=57|35=0|34=336|49=FIXSIM|52=20180109-07:25:40.598|56=QFSAMPLE|10=184|
8=FIX.4.4|9=57|35=0|34=337|49=FIXSIM|52=20180109-07:26:10.800|56=QFSAMPLE|10=169|
8=FIX.4.4|9=57|35=0|34=338|49=FIXSIM|52=20180109-07:26:41.001|56=QFSAMPLE|10=167|
8=FIX.4.4|9=57|35=0|34=339|49=FIXSIM|52=20180109-07:27:11.203|56=QFSAMPLE|10=170|
8=FIX.4.4|9=57|35=0|34=340|49=FIXSIM|52=20180109-07:27:41.202|56=QFSAMPLE|10=164|
8=FIX.4.4|9=57|35=0|34=341|49=FIXSIM|52=20180109-07:28:11.403|56=QFSAMPLE|10=166|
8=FIX.4.4|9=57|35=0|34=342|49=FIXSIM|52=20180109-07:28:41.402|56=QFSAMPLE|10=169|
8=FIX.4.4|9=57|35=0|34=343|49=FIXSIM|52=20180109-07:29:11.432|56=QFSAMPLE|10=171|
8=FIX.4.4|9=57|35=0|34=344|49=FIXSIM|52=20180109-07:29:41.447|56=QFSAMPLE|10=181|
8=FIX.4.4|9=57|35=0|34=345|49=FIXSIM|52=20180109-07:30:11.445|56=QFSAMPLE|10=169|
8=FIX.4.4|9=57|35=0|34=346|49=FIXSIM|52=20180109-07:30:41.444|56=QFSAMPLE|10=172|
8=FIX.4.4|9=57|35=0|34=347|49=FIXSIM|52=20180109-07:31:11.646|56=QFSAMPLE|10=175|
8=FIX.4.4|9=57|35=0|34=348|49=FIXSIM|52=20180109-07:31:41.645|56=QFSAMPLE|10=178|
8=FIX.4.4|9=57|35=0|34=349|49=FIXSIM|52=20180109-07:32:11.846|56=QFSAMPLE|10=180|
8=FIX.4.4|9=57|35=0|34=350|49=FIXSIM|52=20180109-07:32:41.845|56=QFSAMPLE|10=174|
8=FIX.4.4|9=57|35=0|34=351|49=FIXSIM|52=20180109-07:33:11.033|56=QFSAMPLE|10=162|
8=FIX.4.4|9=57|35=0|34=352|49=FIXSIM|52=20180109-07:33:41.219|56=QFSAMPLE|10=172|
8=FIX.4.4|9=57|35=0|34=353|49=FIXSIM|52=20180109-07:34:11.420|56=QFSAMPLE|10=165|
8=FIX.4.4|9=57|35=0|34=354|49=FIXSIM|52=20180109-07:34:41.606|56=QFSAMPLE|10=175|
8=FIX.4.4|9=57|35=0|34=355|49=FIXSIM|52=20180109-07:35:11.792|56=QFSAMPLE|10=180|
8=FIX.4.4|9=57|35=0|34=356|49=FIXSIM|52=20180109-07:35:41.994|56=QFSAMPLE|10=188|
8=FIX.4.4|9=57|35=0|34=357|49=FIXSIM|52=20180109-07:36:11.181|56=QFSAMPLE|10=175|
8=FIX.4.4|9=57|35=0|34=358|49=FIXSIM|52=20180109-07:36:41.243|56=QFSAMPLE|10=178|
8=FIX.4.4|9=57|35=0|34=359|49=FIXSIM|52=20180109-07:37:11.413|56=QFSAMPLE|10=176|
8=FIX.4.4|9=57|35=0|34=360|49=FIXSIM|52=20180109-07:37:41.583|56=QFSAMPLE|10=179|
8=FIX.4.4|9=57|35=0|34=361|49=FIXSIM|52=20180109-07:38:11.754|56=QFSAMPLE|10=178|
8=FIX.4.4|9=57|35=0|34=362|49=FIXSIM|52=20180109-07:38:41.877|56=QFSAMPLE|10=188|
8=FIX.4.4|9=57|35=0|34=363|49=FIXSIM|52=20180109-07:39:11.049|56=QFSAMPLE|10=178|
8=FIX.4.4|9=57|35=0|34=364|49=FIXSIM|52=20180109-07:39:41.204|56=QFSAMPLE|10=175|
8=FIX.4.4|9=57|35=0|34=365|49=FIXSIM|52=20180109-07:40:11.390|56=QFSAMPLE|10=171|
8=FIX.4.4|9=57|35=0|34=366|49=FIXSIM|52=20180109-07:40:41.576|56=QFSAMPLE|10=181|
8=FIX.4.4|9=57|35=0|34=367|49=FIXSIM|52=20180109-07:41:11.762|56=QFSAMPLE|10=177|
8=FIX.4.4|9=57|35=0|34=368|49=FIXSIM|52=20180109-07:41:41.933|56=QFSAMPLE|10=181|
8=FIX.4.4|9=57|35=0|34=369|49=FIXSIM|52=20180109-07:42:11.947|56=QFSAMPLE|10=185|
8=FIX.4.4|9=57|35=0|34=370|49=FIXSIM|52=20180109-07:42:41.072|56=QFSAMPLE|10=169|
8=FIX.4.4|9=57|35=0|34=371|49=FIXSIM|52=20180109-07:43:11.087|56=QFSAMPLE|10=174|
8=FIX.4.4|9=57|35=0|34=372|49=FIXSIM|52=20180109-07:43:41.241|56=QFSAMPLE|10=170|
8=FIX.4.4|9=57|35=0|34=373|49=FIXSIM|52=20180109-07:44:11.396|56=QFSAMPLE|10=180|
8=FIX.4.4|9=57|35=0|34=374|49=FIXSIM|52=20180109-07:44:41.551|56=QFSAMPLE|10=177|
8=FIX.4.4|9=57|35=0|34=375|49=FIXSIM|52=20180109-07:45:11.706|56=QFSAMPLE|10=178|
8=FIX.4.4|9=57|35=0|34=376|49=FIXSIM|52=20180109-07:45:41.876|56=QFSAMPLE|10=190|
8=FIX.4.4|9=57|35=0|34=377|49=FIXSIM|52=20180109-07:46:11.033|56=QFSAMPLE|10=174|
8=FIX.4.4|9=57|35=0|34=378|49=FIXSIM|52=20180109-07:46:41.172|56=QFSAMPLE|10=182|
8=FIX.4.4|9=57|35=0|34=379|49=FIXSIM|52=20180109-07:47:11.311|56=QFSAMPLE|10=176|
8=FIX.4.4|9=57|35=0|34=380|49=FIXSIM|52=20180109-07:47:41.450|56=QFSAMPLE|10=175|
8=FIX.4.4|9=57|35=0|34=381|49=FIXSIM|52=20180109-07:48:11.589|56=QFSAMPLE|10=187|
8=FIX.4.4|9=57|35=0|34=382|49=FIXSIM|52=20180109-07:48:41.729|56=QFSAMPLE|10=187|
8=FIX.4.4|9=57|35=0|34=383|49=FIXSIM|52=20180109-07:49:11.868|56=QFSAMPLE|10=190|
8=FIX.4.4|9=57|35=0|34=384|49=FIXSIM|52=20180109-07:49:42.007|56=QFSAMPLE|10=180|
8=FIX.4.4|9=57|35=0|34=385|49=FIXSIM|52=20180109-07:50:12.177|56=QFSAMPLE|10=178|
8=FIX.4.4|9=57|35=0|34=386|49=FIXSIM|52=20180109-07:50:42.363|56=QFSAMPLE|10=179|
8=FIX.4.4|9=57|35=0|34=387|49=FIXSIM|52=20180109-07:51:12.518|56=QFSAMPLE|10=180|
8=FIX.4.4|9=57|35=0|34=388|49=FIXSIM|52=20180109-07:51:42.657|56=QFSAMPLE|10=188|
8=FIX.4.4|9=57|35=0|34=389|49=FIXSIM|52=20180109-07:52:12.812|56=QFSAMPLE|10=180|
8=FIX.4.4|9=57|35=0|34=390|49=FIXSIM|52=20180109-07:52:42.951|56=QFSAMPLE|10=179|
8=FIX.4.4|9=57|35=0|34=391|49=FIXSIM|52=20180109-07:53:12.092|56=QFSAMPLE|10=174|
8=FIX.4.4|9=57|35=0|34=392|49=FIXSIM|52=20180109-07:53:42.216|56=QFSAMPLE|10=176|
8=FIX.4.4|9=57|35=0|34=393|49=FIXSIM|52=20180109-07:54:12.355|56=QFSAMPLE|10=179|
8=FIX.4.4|9=57|35=0|34=394|49=FIXSIM|52=20180109-07:54:42.479|56=QFSAMPLE|10=190|
8=FIX.4.4|9=57|35=0|34=395|49=FIXSIM|52=20180109-07:55:12.602|56=QFSAMPLE|10=177|
8=FIX.4.4|9=57|35=0|34=396|49=FIXSIM|52=20180109-07:55:42.804|56=QFSAMPLE|10=185|
8=FIX.4.4|9=57|35=0|34=397|49=FIXSIM|52=20180109-07:56:12.974|56=QFSAMPLE|10=192|
8=FIX.4.4|9=57|35=0|34=398|49=FIXSIM|52=20180109-07:56:42.068|56=QFSAMPLE|10=190|
8=FIX.4.4|9=57|35=0|34=399|49=FIXSIM|52=20180109-07:57:12.176|56=QFSAMPLE|10=189|
8=FIX.4.4|9=57|35=0|34=400|49=FIXSIM|52=20180109-07:57:42.175|56=QFSAMPLE|10=174|
8=FIX.4.4|9=57|35=0|34=401|49=FIXSIM|52=20180109-07:58:12.174|56=QFSAMPLE|10=172|
8=FIX.4.4|9=57|35=0|34=402|49=FIXSIM|52=20180109-07:58:42.188|56=QFSAMPLE|10=181|
8=FIX.4.4|9=57|35=0|34=403|49=FIXSIM|52=20180109-07:59:12.296|56=QFSAMPLE|10=180|
8=FIX.4.4|9=57|35=0|34=404|49=FIXSIM|52=20180109-07:59:42.357|56=QFSAMPLE|10=182|
8=FIX.4.4|9=57|35=0|34=405|49=FIXSIM|52=20180109-08:00:12.559|56=QFSAMPLE|10=171|
8=FIX.4.4|9=57|35=0|34=406|49=FIXSIM|52=20180109-08:00:42.573|56=QFSAMPLE|10=171|
8=FIX.4.4|9=57|35=0|34=407|49=FIXSIM|52=20180109-08:01:12.759|56=QFSAMPLE|10=176|
8=FIX.4.4|9=57|35=0|34=408|49=FIXSIM|52=20180109-08:01:42.774|56=QFSAMPLE|10=177|
8=FIX.4.4|9=57|35=0|34=409|49=FIXSIM|52=20180109-08:02:12.975|56=QFSAMPLE|10=179|
8=FIX.4.4|9=57|35=0|34=410|49=FIXSIM|52=20180109-08:02:42.974|56=QFSAMPLE|10=173|
8=FIX.4.4|9=57|35=0|34=411|49=FIXSIM|52=20180109-08:03:12.973|56=QFSAMPLE|10=171|
8=FIX.4.4|9=57|35=0|34=412|49=FIXSIM|52=20180109-08:03:42.987|56=QFSAMPLE|10=180|
8=FIX.4.4|9=57|35=0|34=413|49=FIXSIM|52=20180109-08:04:12.159|56=QFSAMPLE|10=170|
8=FIX.4.4|9=57|35=0|34=414|49=FIXSIM|52=20180109-08:04:42.174|56=QFSAMPLE|10=171|
8=FIX.4.4|9=57|35=0|34=415|49=FIXSIM|52=20180109-08:05:12.375|56=QFSAMPLE|10=173|
8=FIX.4.4|9=57|35=0|34=416|49=FIXSIM|52=20180109-08:05:42.374|56=QFSAMPLE|10=176|
8=FIX.4.4|9=57|35=0|34=417|49=FIXSIM|52=20180109-08:06:12.467|56=QFSAMPLE|10=178|
8=FIX.4.4|9=57|35=0|34=418|49=FIXSIM|52=20180109-08:06:42.575|56=QFSAMPLE|10=182|
8=FIX.4.4|9=57|35=0|34=419|49=FIXSIM|52=20180109-08:07:12.589|56=QFSAMPLE|10=186|
8=FIX.4.4|9=57|35=0|34=420|49=FIXSIM|52=20180109-08:07:42.791|56=QFSAMPLE|10=176|
8=FIX.4.4|9=57|35=0|34=421|49=FIXSIM|52=20180109-08:08:13.008|56=QFSAMPLE|10=167|
8=FIX.4.4|9=57|35=0|34=422|49=FIXSIM|52=20180109-08:08:43.194|56=QFSAMPLE|10=177|
8=FIX.4.4|9=57|35=0|34=423|49=FIXSIM|52=20180109-08:09:13.380|56=QFSAMPLE|10=173|
8=FIX.4.4|9=57|35=0|34=424|49=FIXSIM|52=20180109-08:09:43.550|56=QFSAMPLE|10=176|
8=FIX.4.4|9=57|35=0|34=425|49=FIXSIM|52=20180109-08:10:13.658|56=QFSAMPLE|10=175|
8=FIX.4.4|9=57|35=0|34=426|49=FIXSIM|52=20180109-08:10:43.797|56=QFSAMPLE|10=183|
8=FIX.4.4|9=57|35=0|34=427|49=FIXSIM|52=20180109-08:11:13.983|56=QFSAMPLE|10=179|
8=FIX.4.4|9=57|35=0|34=428|49=FIXSIM|52=20180109-08:11:43.171|56=QFSAMPLE|10=172|
8=FIX.4.4|9=57|35=0|34=429|49=FIXSIM|52=20180109-08:12:13.170|56=QFSAMPLE|10=170|
8=FIX.4.4|9=57|35=0|34=430|49=FIXSIM|52=20180109-08:12:43.184|56=QFSAMPLE|10=170|
8=FIX.4.4|9=57|35=0|34=431|49=FIXSIM|52=20180109-08:13:13.370|56=QFSAMPLE|10=166|
8=FIX.4.4|9=57|35=0|34=432|49=FIXSIM|52=20180109-08:13:43.369|56=QFSAMPLE|10=178|
8=FIX.4.4|9=57|35=0|34=433|49=FIXSIM|52=20180109-08:14:13.399|56=QFSAMPLE|10=180|
8=FIX.4.4|9=57|35=0|34=434|49=FIXSIM|52=20180109-08:14:43.585|56=QFSAMPLE|10=181|
8=FIX.4.4|9=57|35=0|34=435|49=FIXSIM|52=20180109-08:15:13.584|56=QFSAMPLE|10=179|
8=FIX.4.4|9=57|35=0|34=436|49=FIXSIM|52=20180109-08:15:43.785|56=QFSAMPLE|10=186|
8=FIX.4.4|9=57|35=0|34=437|49=FIXSIM|52=20180109-08:16:13.784|56=QFSAMPLE|10=184|
8=FIX.4.4|9=57|35=0|34=438|49=FIXSIM|52=20180109-08:16:43.986|56=QFSAMPLE|10=192|
8=FIX.4.4|9=57|35=0|34=439|49=FIXSIM|52=20180109-08:17:13.985|56=QFSAMPLE|10=190|
8=FIX.4.4|9=57|35=0|34=440|49=FIXSIM|52=20180109-08:17:43.999|56=QFSAMPLE|10=190|
8=FIX.4.4|9=57|35=0|34=441|49=FIXSIM|52=20180109-08:18:14.013|56=QFSAMPLE|10=167|
8=FIX.4.4|9=57|35=0|34=442|49=FIXSIM|52=20180109-08:18:44.184|56=QFSAMPLE|10=180|
8=FIX.4.4|9=57|35=0|34=443|49=FIXSIM|52=20180109-08:19:14.385|56=QFSAMPLE|10=182|
8=FIX.4.4|9=57|35=0|34=444|49=FIXSIM|52=20180109-08:19:44.571|56=QFSAMPLE|10=183|
8=FIX.4.4|9=57|35=0|34=445|49=FIXSIM|52=20180109-08:20:14.773|56=QFSAMPLE|10=177|
8=FIX.4.4|9=57|35=0|34=446|49=FIXSIM|52=20180109-08:20:44.819|56=QFSAMPLE|10=182|
8=FIX.4.4|9=57|35=0|34=447|49=FIXSIM|52=20180109-08:21:14.989|56=QFSAMPLE|10=189|
8=FIX.4.4|9=57|35=0|34=448|49=FIXSIM|52=20180109-08:21:44.161|56=QFSAMPLE|10=175|
8=FIX.4.4|9=57|35=0|34=449|49=FIXSIM|52=20180109-08:22:14.191|56=QFSAMPLE|10=177|
8=FIX.4.4|9=57|35=0|34=450|49=FIXSIM|52=20180109-08:22:44.377|56=QFSAMPLE|10=178|
8=FIX.4.4|9=57|35=0|34=451|49=FIXSIM|52=20180109-08:23:14.579|56=QFSAMPLE|10=181|
8=FIX.4.4|9=57|35=0|34=452|49=FIXSIM|52=20180109-08:23:44.765|56=QFSAMPLE|10=182|
8=FIX.4.4|9=57|35=0|34=453|49=FIXSIM|52=20180109-08:24:14.779|56=QFSAMPLE|10=186|
8=FIX.4.4|9=57|35=0|34=454|49=FIXSIM|52=20180109-08:24:44.825|56=QFSAMPLE|10=182|
8=FIX.4.4|9=57|35=0|34=455|49=FIXSIM|52=20180109-08:25:14.979|56=QFSAMPLE|10=191|
8=FIX.4.4|9=57|35=0|34=456|49=FIXSIM|52=20180109-08:25:45.009|56=QFSAMPLE|10=180|
8=FIX.4.4|9=57|35=0|34=457|49=FIXSIM|52=20180109-08:26:15.195|56=QFSAMPLE|10=185|
8=FIX.4.4|9=57|35=0|34=458|49=FIXSIM|52=20180109-08:26:45.397|56=QFSAMPLE|10=193|
8=FIX.4.4|9=57|35=0|34=459|49=FIXSIM|52=20180109-08:27:15.599|56=QFSAMPLE|10=196|
8=FIX.4.4|9=57|35=0|34=460|49=FIXSIM|52=20180109-08:27:45.800|56=QFSAMPLE|10=176|
8=FIX.4.4|9=57|35=0|34=461|49=FIXSIM|52=20180109-08:28:15.799|56=QFSAMPLE|10=192|
8=FIX.4.4|9=57|35=0|34=462|49=FIXSIM|52=20180109-08:28:46.001|56=QFSAMPLE|10=173|
8=FIX.4.4|9=57|35=0|34=463|49=FIXSIM|52=20180109-08:29:16.187|56=QFSAMPLE|10=187|
8=FIX.4.4|9=57|35=0|34=464|49=FIXSIM|52=20180109-08:29:46.373|56=QFSAMPLE|10=188|
8=FIX.4.4|9=57|35=0|34=465|49=FIXSIM|52=20180109-08:30:16.371|56=QFSAMPLE|10=176|
8=FIX.4.4|9=57|35=0|34=466|49=FIXSIM|52=20180109-08:30:46.386|56=QFSAMPLE|10=186|
8=FIX.4.4|9=57|35=0|34=467|49=FIXSIM|52=20180109-08:31:16.572|56=QFSAMPLE|10=182|
8=FIX.4.4|9=57|35=0|34=468|49=FIXSIM|52=20180109-08:31:46.773|56=QFSAMPLE|10=189|
8=FIX.4.4|9=57|35=0|34=469|49=FIXSIM|52=20180109-08:32:16.772|56=QFSAMPLE|10=187|
8=FIX.4.4|9=57|35=0|34=470|49=FIXSIM|52=20180109-08:32:46.911|56=QFSAMPLE|10=177|
8=FIX.4.4|9=57|35=0|34=471|49=FIXSIM|52=20180109-08:33:17.004|56=QFSAMPLE|10=170|
8=FIX.4.4|9=57|35=0|34=472|49=FIXSIM|52=20180109-08:33:47.205|56=QFSAMPLE|10=177|
8=FIX.4.4|9=57|35=0|34=473|49=FIXSIM|52=20180109-08:34:17.204|56=QFSAMPLE|10=175|
8=FIX.4.4|9=57|35=0|34=474|49=FIXSIM|52=20180109-08:34:47.203|56=QFSAMPLE|10=178|
8=FIX.4.4|9=57|35=0|34=475|49=FIXSIM|52=20180109-08:35:17.405|56=QFSAMPLE|10=181|
8=FIX.4.4|9=57|35=0|34=476|49=FIXSIM|52=20180109-08:35:47.450|56=QFSAMPLE|10=185|
8=FIX.4.4|9=57|35=0|34=477|49=FIXSIM|52=20180109-08:36:17.589|56=QFSAMPLE|10=197|
8=FIX.4.4|9=57|35=0|34=478|49=FIXSIM|52=20180109-08:36:47.604|56=QFSAMPLE|10=189|
8=FIX.4.4|9=57|35=0|34=479|49=FIXSIM|52=20180109-08:37:17.603|56=QFSAMPLE|10=187|
8=FIX.4.4|9=57|35=0|34=480|49=FIXSIM|52=20180109-08:37:47.804|56=QFSAMPLE|10=185|
8=FIX.4.4|9=57|35=0|34=481|49=FIXSIM|52=20180109-08:38:17.897|56=QFSAMPLE|10=196|
8=FIX.4.4|9=57|35=0|34=482|49=FIXSIM|52=20180109-08:38:48.005|56=QFSAMPLE|10=182|
8=FIX.4.4|9=57|35=0|34=483|49=FIXSIM|52=20180109-08:39:18.191|56=QFSAMPLE|10=187|
8=FIX.4.4|9=57|35=0|34=484|49=FIXSIM|52=20180109-08:39:48.392|56=QFSAMPLE|10=194|
8=FIX.4.4|9=57|35=0|34=485|49=FIXSIM|52=20180109-08:40:18.391|56=QFSAMPLE|10=183|
8=FIX.4.4|9=57|35=0|34=486|49=FIXSIM|52=20180109-08:40:48.499|56=QFSAMPLE|10=196|
8=FIX.4.4|9=57|35=0|34=487|49=FIXSIM|52=20180109-08:41:18.591|56=QFSAMPLE|10=188|
8=FIX.4.4|9=57|35=0|34=488|49=FIXSIM|52=20180109-08:41:48.606|56=QFSAMPLE|10=189|
8=FIX.4.4|9=57|35=0|34=489|49=FIXSIM|52=20180109-08:42:18.807|56=QFSAMPLE|10=191|
8=FIX.4.4|9=57|35=0|34=490|49=FIXSIM|52=20180109-08:42:48.806|56=QFSAMPLE|10=185|
8=FIX.4.4|9=57|35=0|34=491|49=FIXSIM|52=20180109-08:43:18.805|56=QFSAMPLE|10=183|
8=FIX.4.4|9=57|35=0|34=492|49=FIXSIM|52=20180109-08:43:49.007|56=QFSAMPLE|10=182|
8=FIX.4.4|9=57|35=0|34=493|49=FIXSIM|52=20180109-08:44:19.193|56=QFSAMPLE|10=187|
8=FIX.4.4|9=57|35=0|34=494|49=FIXSIM|52=20180109-08:44:49.207|56=QFSAMPLE|10=187|
8=FIX.4.4|9=57|35=0|34=495|49=FIXSIM|52=20180109-08:45:19.206|56=QFSAMPLE|10=185|
8=FIX.4.4|9=57|35=0|34=496|49=FIXSIM|52=20180109-08:45:49.251|56=QFSAMPLE|10=189|
8=FIX.4.4|9=57|35=0|34=497|49=FIXSIM|52=20180109-08:46:19.406|56=QFSAMPLE|10=190|
8=FIX.4.4|9=57|35=0|34=498|49=FIXSIM|52=20180109-08:46:49.436|56=QFSAMPLE|10=197|
8=FIX.4.4|9=57|35=0|34=499|49=FIXSIM|52=20180109-08:47:19.622|56=QFSAMPLE|10=193|
8=FIX.4.4|9=57|35=0|34=500|49=FIXSIM|52=20180109-08:47:49.621|56=QFSAMPLE|10=178|
8=FIX.4.4|9=57|35=0|34=501|49=FIXSIM|52=20180109-08:48:19.682|56=QFSAMPLE|10=184|
8=FIX.4.4|9=57|35=0|34=502|49=FIXSIM|52=20180109-08:48:49.837|56=QFSAMPLE|10=190|
8=FIX.4.4|9=57|35=0|34=503|49=FIXSIM|52=20180109-08:49:19.914|56=QFSAMPLE|10=185|
8=FIX.4.4|9=57|35=0|34=504|49=FIXSIM|52=20180109-08:49:50.006|56=QFSAMPLE|10=173|
8=FIX.4.4|9=57|35=0|34=505|49=FIXSIM|52=20180109-08:50:20.099|56=QFSAMPLE|10=175|
8=FIX.4.4|9=57|35=0|34=506|49=FIXSIM|52=20180109-08:50:50.222|56=QFSAMPLE|10=167|
8=FIX.4.4|9=57|35=0|34=507|49=FIXSIM|52=20180109-08:51:20.299|56=QFSAMPLE|10=180|
8=FIX.4.4|9=57|35=0|34=508|49=FIXSIM|52=20180109-08:51:50.391|56=QFSAMPLE|10=177|
8=FIX.4.4|9=57|35=0|34=509|49=FIXSIM|52=20180109-08:52:20.468|56=QFSAMPLE|10=181|
8=FIX.4.4|9=57|35=0|34=510|49=FIXSIM|52=20180109-08:52:50.561|56=QFSAMPLE|10=170|
8=FIX.4.4|9=57|35=0|34=511|49=FIXSIM|52=20180109-08:53:20.653|56=QFSAMPLE|10=171|
